:1068000000180020596C0000A16C0000A16C000071
:106810000000000000000000000000000000000078
:10682000000000000000000000000000A16C00005B
:106830000000000000000000A16C000021A2000088
:10684000A16C0000A16C0000A16C0000A16C000014
:10685000A16C0000A16C0000A16C0000A16C000004
:10686000A16C0000A16C0000A16C0000A16C0000F4
:106870008DA10000A16C0000A16C0000A16C0000C3
:10688000A16C0000A16C0000A16C0000A16C0000D4
:10689000A16C0000A16C0000A16C0000A16C0000C4
:1068A000A16C0000A16C0000A16C0000A16C0000B4
:1068B000A16C0000A16C0000A16C0000A16C0000A4
:106C0000FFFFFFFFFFFFFFFFFFFFFFFFFEFFFFFF95
:106C100010B5064C2378002B07D1054B002B02D072
:106C2000044800E000BF0123237010BD6C04002065
:106C30000000000058B30000044B10B5002B03D037
:106C40000349044800E000BF10BDC046000000003A
:106C50007004002058B3000072B602F001FF62B663
:106C60000A490B4A0B4B9B1A03DD043BC858D05012
:106C7000FBDC0949094A521A03DD00208850043A16
:106C8000FCDA03F0F3F802F06DFF000080B30000BF
:106C9000000400206C0400206C04002094040020F8
:106CA00000B5C04600BDC046002243088B4274D3E5
:106CB00003098B425FD3030A8B4244D3030B8B42FD
:106CC00028D3030C8B420DD3FF22090212BA030C06
:106CD0008B4202D31212090265D0030B8B4219D3E7
:106CE00000E0090AC30B8B4201D3CB03C01A524107
:106CF000830B8B4201D38B03C01A5241430B8B424F
:106D000001D34B03C01A5241030B8B4201D30B0337
:106D1000C01A5241C30A8B4201D3CB02C01A52415E
:106D2000830A8B4201D38B02C01A5241430A8B4221
:106D300001D34B02C01A5241030A8B4201D30B020A
:106D4000C01A5241CDD2C3098B4201D3CB01C01A24
:106D5000524183098B4201D38B01C01A524143092E
:106D60008B4201D34B01C01A524103098B4201D31C
:106D70000B01C01A5241C3088B4201D3CB00C01A89
:106D8000524183088B4201D38B00C01A5241430801
:106D90008B4201D34B00C01A5241411A00D2014626
:106DA000524110467047FFE701B5002000F0F0F8AF
:106DB00002BDC0460029F7D076E7704703460B4373
:106DC0007FD4002243088B4274D303098B425FD3E4
:106DD000030A8B4244D3030B8B4228D3030C8B4210
:106DE0000DD3FF22090212BA030C8B4202D31212F6
:106DF000090265D0030B8B4219D300E0090AC30BCB
:106E00008B4201D3CB03C01A5241830B8B4201D377
:106E10008B03C01A5241430B8B4201D34B03C01A60
:106E20005241030B8B4201D30B03C01A5241C30AD8
:106E30008B4201D3CB02C01A5241830A8B4201D349
:106E40008B02C01A5241430A8B4201D34B02C01A33
:106E50005241030A8B4201D30B02C01A5241CDD2D8
:106E6000C3098B4201D3CB01C01A524183098B4223
:106E700001D38B01C01A524143098B4201D34B010C
:106E8000C01A524103098B4201D30B01C01A52416F
:106E9000C3088B4201D3CB00C01A524183088B42F6
:106EA00001D38B00C01A524143088B4201D34B00DF
:106EB000C01A5241411A00D2014652411046704751
:106EC0005DE0CA0F00D04942031000D34042534056
:106ED00000229C4603098B422DD3030A8B4212D316
:106EE000FC22890112BA030A8B420CD38901921148
:106EF0008B4208D3890192118B4204D389013AD085
:106F0000921100E08909C3098B4201D3CB01C01A59
:106F1000524183098B4201D38B01C01A524143096C
:106F20008B4201D34B01C01A524103098B4201D35A
:106F30000B01C01A5241C3088B4201D3CB00C01AC7
:106F4000524183088B4201D38B00C01A5241D9D2DF
:106F500043088B4201D34B00C01A5241411A00D260
:106F60000146634652415B10104601D34042002B5C
:106F700000D54942704763465B1000D3404201B5DB
:106F8000002000F005F802BD0029F8D016E7704790
:106F90007047C0468446101C62468C46191C6346E6
:106FA00000E0C0461FB501F077FC002801D40021A5
:106FB000C8421FBD10B501F0CFFB4042013010BDEB
:106FC00010B501F069FC002801DB002010BD012094
:106FD00010BDC04610B501F05FFC002801DD0020A7
:106FE00010BD012010BDC04610B501F0F1FB002816
:106FF00001DC002010BD012010BDC04610B501F01D
:10700000E7FB002801DA002010BD012010BDC046BA
:10701000002B11D1002A0FD1002900D1002802D065
:107020000021C943081C07B4024802A1401802907D
:1070300003BDC0465DFFFFFF03B4684601B502987B
:1070400000F042F8019B9E4602B00CBC7047C0465F
:1070500070B500220C4B04000D00FFF7CFFF002895
:1070600004D12000290002F055FA70BD064B002221
:107070002000290001F0EAFE02F04CFA80231B06F2
:107080009C466044F1E7C0460000E04170B5002234
:107090000B4B0D00040001F067FCFFF7D9FF060061
:1070A00002F0A8FA0022074B01F05EFC02000B0080
:1070B0002000290001F0CAFEFFF7CAFF310070BDB1
:1070C0000000F03D0000F041F0B54F464646D64680
:1070D000C0B5040082B00D00914698468B422FD86F
:1070E0002CD04146484602F0ABFB290006002000A8
:1070F00002F0A6FB331A9C46203B9A4600D576E068
:107100004B46524693401F004B46624693401E003A
:10711000AF4228D825D05346A41BBD41002B00DA2E
:107120007BE000220023009201930123524693400A
:107130000193012362469340009318E08242D0D924
:1071400000220023009201930A9B002B01D01C60B7
:107150005D600098019902B01CBC90469946A24619
:10716000F0BDA342D7D900220023009201936346C9
:10717000002BE9D0FB079846414672080A437B087A
:1071800066460EE0AB4201D1A2420CD8A41A9D4142
:10719000012024196D410021013E24184D41002E8B
:1071A00006D0AB42EED9013E24196D41002EF8D134
:1071B00000980199534600196941002B23DB2B00ED
:1071C0005246D3402A006446E2401C005346150054
:1071D000002B2DDB26005746BE40330026006746B5
:1071E000BE403200801A994100900191ACE762469E
:1071F00020239B1A4A46DA406146130042468A40E1
:1072000017001F4380E7624620239B1A2A00664628
:107210009A402300F3401343D4E762462023002121
:107220009B1A0022009101920122DA40019280E72C
:107230002023624626009B1ADE402F00B046664699
:10724000B74046463B003343C8E7C046F8B557460B
:107250004E464546DE464402E0B546008846640A8E
:10726000360EC70F002E63D0FF2E24D08023E400FB
:10727000DB041C43002399469B467F3E434642461F
:107280005D02D20F5B006D0A1B0E9046924665D0E0
:10729000FF2B55D080220021ED00D2047F3B154307
:1072A000F61A43464A467B400F2A00D98DE06D48C6
:1072B000920082589746002C54D108239946063BE9
:1072C000FF269B46DAE70025534602291BD00329F7
:1072D00000D1BFE0012928D030007F30002820DD18
:1072E0006A0704D00F222A40042A00D004352A015C
:1072F00003D530005C4A80301540FE2803DCAC0129
:10730000640AC2B201E0FF2200246402D205600ACE
:10731000DB07104318433CBC90469946A246AB4657
:10732000F8BD0122101A1B287CDD00220024ECE7A6
:10733000002C1DD104239946033B00269B469DE764
:10734000FF3E002D20D1022143464A467B400A439E
:107350000F2AD8D84548920082589746002D19D157
:107360000121F1E70C239946093BFF269B4685E75F
:10737000200002F047FA7626431F9C400023764205
:10738000361A99469B4679E74A4603231A439146A3
:10739000032186E7280002F035FA431F36189D4086
:1073A000763600217DE780240023E403FF22ACE74A
:1073B00000258023DB031C4228D01D4226D12B430D
:1073C0005C02640A4346FF229FE762016C01A2420D
:1073D00024D21B210025013E012710006D00520020
:1073E000002801DB944201D8121B3D4301390029DA
:1073F000F3D11400621E944125436DE7BA46594605
:1074000025005346022900D061E77CE78023DB0397
:107410001C436402640A3B00FF2276E7121B1A2118
:107420000125D9E79E362A00B5402C00C240651ED2
:10743000AC411443620704D00F222240042A00D03A
:107440000434620103D4A401640A00225DE701222E
:1074500000245AE78024E4032C436402640AFF22D8
:1074600053E7C0464CAF0000FFFFFFF78CAF0000B2
:10747000F0B54E4657464546DE46E0B543025B0A48
:10748000450083B00F1C99462D0EC60F002D57D016
:10749000FF2D24D08020DB00C00418430023814648
:1074A0009A469B467F3D7C027A00FB0F640A120ECF
:1074B000984623D0FF2A4BD0E30080240020E40428
:1074C0007F3A1C43AD186B1C4746019353467740E7
:1074D0003A000F2B48D87D499B00CB589F46002B84
:1074E00000D085E008339A46063B9B467C027A0032
:1074F000FB0FFF25640A120E9846DBD1002C00D04A
:1075000090E0524601231A4392460120DBE74C46A5
:1075100058461700022824D0032800D1CFE00022CB
:10752000002301284DD15802D205400AFF0710431D
:10753000384303B03CBC90469946A246AB46F0BDEA
:10754000002B5BD104239A46033B00259B46AAE708
:10755000FF35002C60D1524602231A439246022086
:10756000B1E7FF220023DEE74B461B0C9C464B464F
:107570002604360C180461463300220C6446000CC5
:1075800043434E435043544380191A0C12189642F9
:1075900003D9802149028C4664441B041B0C10044F
:1075A000C01883015E1EB341800E1843130C1B19D3
:1075B0009B0103431C00230179D5012362081C4071
:1075C0001443019A7F32002A4DDD630704D00F2354
:1075D0002340042B00D00434230103D53C4B019AF3
:1075E0001C408032FE2ABCDCA3015B0AD2B29AE7BF
:1075F0000C239A46093BFF259B4654E7180002F0EE
:1076000001F94A46431F76259A4000236D42914670
:107610002D1A9A469B4646E7524603231A43924642
:10762000032050E7200002F0EDF8431F2D1A9C4084
:10763000763D002047E780230027DB03FF2272E727
:10764000424666E74C463200584662E780234A4687
:10765000DB031A4222D01C4220D123435B025B0A87
:107660004746FF225FE701239A1A1B2A21DC2300E9
:107670000199D3409E318C401A0023005C1EA34127
:1076800013435A0704D00F221A40042A00D00433AF
:107690005A0111D49B015B0A002244E780234A4629
:1076A000DB0313435B025B0A3700FF223BE70195D4
:1076B00087E70022002336E70122002333E78023F7
:1076C000DB0323435B025B0AFF222CE7CCAF000005
:1076D000FFFFFFF7F8B54746CE464400C20F80B51E
:1076E00047024802400A8446664648007F0A240E44
:1076F000F60025009046FB00000EC90FB146FF289A
:1077000000D185E001267140261A914257D0002E03
:1077100043DD002800D07FE04946002900D1AAE0DF
:10772000013E002E00D0F7E05B1A5A0100D48BE036
:107730009B019C09200002F065F8053884408542D1
:1077400000DDD3E0451B230020200135EB40451B25
:10775000AC40621E94412343072400251C400122B3
:1077600041460A40002C04D00F211940042900D0C2
:107770000433590100D480E00135ECB2FF2D00D074
:10778000A3E0FF2400235B02E405580AD20720434C
:1077900010430CBC90469946F8BD002E74D1601C75
:1077A000C0B2012800DCA7E04A469C1A620100D55D
:1077B000B6E0002CBED1002200240023E3E7002E17
:1077C00000DC85E0002846D0FF2C49D080224846C6
:1077D000D2041043814601221B2E09DC20204C4696
:1077E000801B84404A462000F240441EA0410243D0
:1077F0009B185A0128D50135FF2D00D1A8E00122A0
:10780000072494491A405B080B4013431C40A6E729
:10781000002E00D078E775E7FF2C54D0802249462F
:10782000D2041143894601221B2E09DC202148463F
:10783000891B88404A460100F240481E81410A43A4
:107840009B1A5A0100D573E7012241460A405907A5
:1078500000D089E711E04846002858D1FF2C0CD110
:10786000DB08002B00D18CE78020C00303435B02C0
:107870005B0AFF2487E7FF2C25D0DB08FF2DF0D023
:107880005B025B0AECB27EE7002C4DD0FF2818D0DB
:107890008024E404724223431B2A00DDC4E01C0060
:1078A0002025D440AA1A93405A1E934123434A46A6
:1078B0000500D31A884638E7721CF8D0F243FF2837
:1078C000EAD10A004B46FF25D7E79B015B0A5AE73E
:1078D000002E41D1651CE9B2012945DDFF2D00D103
:1078E0004FE707244B445B081C4038E707225A4BFC
:1078F0002D1A2340144032E7002C1DD1002B7AD1E1
:107900004B46002B00D191E00A000025B5E7013E6F
:10791000002E19D14B446CE7FF2C84D1FF25ACE736
:107920004A468846D41A05E7002BC5D10A00FF282D
:10793000C8D005004B46A0E7002B49D14B46002B91
:1079400077D00A00FF2598E7FF2C00D043E787E7B0
:107950000A00FF24002316E7002C15D1002B57D175
:10796000FF28E6D14B467BE7002C20D1002B57D0D7
:107970004946002953D04B445A0168D50724364A5A
:107980001C4001251340EAE6FF28EBD08022D204F8
:10799000764213431B2E53DC2025AD1B1A00AB404F
:1079A000F2405C1EA34113434B44050021E7002B2A
:1079B000D8D04946002900D152E78021C9030F429F
:1079C00000D14DE76046084200D049E74B4647E703
:1079D0004846FF25002800D14FE78022D2031742F6
:1079E00004D06046104201D14B46884601224146F0
:1079F000FF250A4041E7484600281FD01A1A5001C7
:107A000020D54A460724D31A1C4088460025A6E6FE
:107A1000741CC9D0F643FF28BCD14B4620E79946D9
:107A20004B460025DB082BE7012340E7002200231B
:107A3000A9E680230022DB03FF24A4E600251CE73F
:107A40000123B1E7002AF1D013000025FCE6002550
:107A5000FAE6C046FFFFFF7DFFFFFFFB4102420049
:107A6000C30F490A120E00207E2A0DD99D2A0CD878
:107A7000802000040143952A0ADC9620821AD14016
:107A80004842002B00D108007047034A9818FBE7D2
:107A9000963A9140F4E7C046FFFFFF7F70B5041EA1
:107AA00034D001F0AFFE9E22121A962A07DCD2B221
:107AB00008282EDD083884406002400A21E0992A17
:107AC00009DD030021001B3399404B1E994105231A
:107AD0001B1ADC400C43052801DD431F9C4023009A
:107AE0000D490B40650709D00F252C40042C05D00B
:107AF00004335C0102D59F220B40121A9B01580AE5
:107B0000D2B24002D205400A104370BD00220020CC
:107B1000F7E76002400AF4E7FFFFFFFBF0B54F46CE
:107B20004646D6460C000903C0B5490A470F5E0019
:107B300039431F03DB0F9C4665007B0A570F1F4329
:107B40006D0DE40F760DA146C000B846D200AB1B08
:107B500064457BD0002B5FDD002E00D0A4E03E000A
:107B6000164300D112E15E1E002E00D09EE1871A5E
:107B70004346B84280410125C91A4042091A0B0206
:107B800000D431E149024E0A002E00D16EE13000EE
:107B900001F038FE0300083B1F2B00DD61E12022CD
:107BA0003900D21A9E40D1409F400E439D4200DDD5
:107BB00051E15D1B6B1C1F2B00DD7CE12021C91AEC
:107BC0003D0030008F408840DD40791E8F413100FC
:107BD00007222843D940002507433A40002A09D00C
:107BE0000F233B40042B05D03B1DBB42BF417F42CE
:107BF000C9191F000B0200D426E26A1CC64B5505AA
:107C00006D0D9A4200D106E1C44AFF080A405307AD
:107C100052023B43120B8EE0002B00D0B8E06B1CED
:107C20005B055B0D012B00DC30E1871A4346B8424F
:107C3000B641CB1A76429E1B330200D54CE13B0085
:107C40003343A1D100220024002570E0002B00DC8A
:107C5000E5E0002E00D183E0AF4EB54260D0802633
:107C600036043743B846382B00DC3EE14346134325
:107C70001F007A1E97413F188742804140420918F1
:107C80000B0200D4B0E0A44B01359D4200D1C3E00B
:107C9000A24A7B080A4001210F401F435108D30725
:107CA00007221F433A4099E79B4EB54238D08026C1
:107CB00036043743B846382B00DDDCE01F2B00DCF0
:107CC00030E11E004746203EF740BC46202B04D042
:107CD0004026F31A46469E403243170063467A1EFA
:107CE00097411F43CCE0002B00D104E243461343ED
:107CF00000D159E14B07C00818438023C9081B0372
:107D0000194208D04546ED081D4204D14346D0082B
:107D1000590708432900420FC9007F4D1143C00095
:107D20004B07CA087C49C00803438D4268D0120340
:107D30006D05120B6D0D002112031800130B0A0DB7
:107D400012051A43764B2D0513402B435B00E407C5
:107D50005B08234319001CBC90469946A246F0BD1F
:107D60003E00164312D05E1E002E00D000E18718A0
:107D70008742804141444042091801250B0233D516
:107D8000022585E764463300414610001D00C7E721
:107D9000002D00D0DAE00C000443F3D05C1C00D1CD
:107DA0009FE15D4CA64200D12FE1DB43382B00DD83
:107DB00066E11F2B00DD83E120240500E41A0F009B
:107DC000DD40D940A0404346A7405B1A441EA04175
:107DD00098462F433843171ABA42924143465242BB
:107DE000991A64463500CAE607223A40002A00D0B4
:107DF000F6E64B07CA084849FF083B438D4296D137
:107E00001900114300D19EE1802109030A431203A6
:107E1000120B414D8FE71500002200238BE7002B4A
:107E200000D0C7E06B1C5F057F0D012F00DCF1E087
:107E3000394DAB4200D1B9E085180A00854289412D
:107E40004244494251180722CF076D082F43490881
:107E50003A401D00C2E607223049ED1A31403A404F
:107E6000BCE63E002838864000279FE6380001F037
:107E7000C9FC20308EE6434613431F007A1E97410B
:107E8000C71BB84280414042091A78E60E003B0009
:107E900006431343002D61D1002E00D0F4E0002BE7
:107EA00000D11BE164463900100039E71A4FBB428C
:107EB0007AD03300FFE630001F3DE840202B03D08E
:107EC0004021CB1A9E4037437B1E9F410722074328
:107ED0003A400021002589E7171A4346BA42B641C5
:107EE000591A76428E1B64464EE61F2B00DDADE02C
:107EF00020264746F61AB740B9461700B246DF407B
:107F00004E463E4337005646B240561EB2411743D6
:107F10004246DA408918AEE6FF070000FFFF7FFF08
:107F2000FFFF0F8020264746F61AB740B9461700D4
:107F3000B246DF404E463E4337005646B240561EDC
:107F4000B24117434246DA40891A99E77F4CA6426C
:107F50005BD0802424045B42214327E7002E0CD110
:107F6000002B00D1CBE0644639001000774DD7E6F6
:107F7000764FBB4218D0330075E6002B14D04B0768
:107F8000C00818438023C9081B03194207D0FC0806
:107F90001C4204D17907D0080843E14621004C4631
:107FA000420FC9001143C000684DB9E61D00002210
:107FB0000023C0E6002D5BD10D00054300D1E2E6B1
:107FC0005D1C00D1B0E0614DAE421FD0DB43382BC9
:107FD00071DC1F2B00DD96E020250F00ED1AAF406D
:107FE000B9460700AA46DF404D463D432F0055469F
:107FF000A840D940451EA84188440743BF1897426E
:1080000092415142414435003AE6644635004146CA
:10801000100085E60B000343002D00D063E6002B23
:10802000F5D04346134300D17AE687188742804152
:1080300007224144404209183A400B0200D4D5E6D9
:10804000434B01351940C9E5380069E61E00474633
:10805000203EF740BC46202B04D04026F31A46466B
:108060009E403243170063467A1E97411F4302E643
:10807000364DAE42CAD080252D045B422943A6E787
:108080000843411E8841A6E6002B00D148E6871A26
:108090004346B842B641CB1A76429E1B33024BD5BB
:1080A000171A4346BA429241591A5242891A072274
:1080B00064463A4092E501430F00791E8F419DE7E7
:1080C0001C000F00203CE740202B03D04024E31A83
:1080D00099400843411E884138437CE60022002431
:1080E00025E6171A4346BA429241591A5242891A52
:1080F0006446350043E541461000144D10E68022E9
:108100000024120380E61D000F00203DEF40BC4616
:10811000202B03D04025EB1A994008430700634603
:10812000781E87411F4369E7871897429B41414466
:108130005B42C9183500A3E53B003343CED007228C
:1081400031003A4052E600231A00F4E5FF07000030
:10815000FFFF7FFFF0B55746DE464E464546E0B589
:10816000834607000E03480085B092461C00360B7C
:10817000400DCD0F002800D19DE0954B984239D09D
:108180008023F6001B041E43924A7B0F334399461B
:10819000944603006344009300230026FF000293EB
:1081A00023031B0B98466300E40F52465B0D0194BA
:1081B00000D1B3E086498B4200D19EE04246D10017
:1081C000802212040A435146490F11438B468149CC
:1081D00052468C4600996344CB1A0021D20000938A
:1081E0002B0063409A460F2E00D905E17A4BB6006A
:1081F0009B599F465B463343994600D0B8E0022323
:108200000826002700900293CAE7CB463A0002995D
:108210000195019B9A46022927D0032900D180E2CB
:10822000012944D06D49009B8C4663441C00002CFE
:1082300038DD530700D013E2D2085B46DB0109D5D5
:108240005946674B19408B468021C9008C46009BDC
:1082500063441C00634B9C4207DC5B4664055F077C
:108260005B0217431B0B620D02E000230027584AF4
:1082700000211B031C0B0B0D1B05234314055A4A3D
:10828000380013401C4353466400DB0764081C435A
:10829000210005B03CBC90469946A246AB46F0BDD5
:1082A0000122524201231B1B382B00DCADE10022CE
:1082B00000230027DCE75B46334399465ED0002E5F
:1082C00000D18AE1300001F09DFA03000B3B1C2B2A
:1082D00000DD7BE11D22D31A5A460100DA4008393D
:1082E0008E4013005F46334399468F403F4B002634
:1082F0001B1A00930023029352E7414653460B4357
:108300003B499B468C46009B634400935B46002B95
:108310003BD1022300221E43022161E7434613435F
:108320009B4637D04346002B00D162E1404601F026
:1083300069FA03000B3B1C2B00DD53E102004146B0
:10834000083A914088461D21CB1A5146D9400B006E
:1083500041460B439B46534693401A00009B2549D8
:108360009C46604403008C4663440093002137E739
:108370000323B14600900C26029311E700230093DB
:1083800001330426002702930AE70323C3461E4352
:10839000032125E701331E430022012120E70023AA
:1083A0009A46802300271B03094A61E78023494638
:1083B0001B03194200D1E2E05946194200D0DEE029
:1083C0000B431B0317001B0BA246014A50E7C04694
:1083D000FF07000001FCFFFF0CB00000FF030000DE
:1083E000FFFFFFFEFE070000FFFF0F800DFCFFFFF9
:1083F00001F8FFFFF3030000D94500D9CBE000D11D
:10840000C6E03C0048460027009B013B00935B46CA
:10841000160E1B021E431302984633041B0C99468A
:10842000310C0191FEF7C6FC4A4642430B04210C75
:10843000050019438A4207D98919013D8E4203D8A4
:108440008A4201D9851E8919881A0199FEF7B2FC62
:1084500009048C464A46210464464243090C030041
:1084600021438A4204D98919013B8E4200D8F1E0A8
:108470002D041D43AB464346891A4246280C12047C
:108480001D0C5B46140C22001B041B0C5A43039466
:108490006B434443029568431B19150CEB189C422F
:1084A00003D980246402A44660441C0C15041B04F8
:1084B0002D0C20185D19814277D373D00C1AA24A73
:1084C0007D1BAF42BF419446009B7F426344E01B4B
:1084D0001C00864200D1DBE00199FEF76BFC4A46A6
:1084E00042430B04290C070019438A4207D9891912
:1084F000013F8E4203D88A4201D9871E8919881A02
:108500000199FEF757FC09044A46894629044D465D
:108510004243090C030029438A4207D98919013BC8
:108520008E4203D88A4201D9831E89193F04891AD1
:108530003A00039F1A43380013041B0C584381462A
:108540000298150C6F43434345434846000C84464C
:10855000DB1963449F4203D980204002844665446E
:1085600048461F0C00041B04000C7D191818A94272
:1085700000D284E000D17FE001231A4357E6802334
:108580004A461B0313431B031B0BAA466F4A6FE6A5
:10859000BA4200D935E74B46DC0758087B081C4334
:1085A000FF0734E70024AF4289D247444745A4413E
:1085B0005B466442A4196418013BA6421ED2A04245
:1085C0006DD800D1B6E0241A9B4678E703005A46DE
:1085D000283B9A400027914688E6584601F012F958
:1085E000203072E603005246283B9A409346002210
:1085F000B4E6504601F006F920309AE6A642E2D1F0
:10860000B845DCD9341A9B4659E71F2B65DC504C22
:108610000099A4465C46614408008C4011008240E9
:10862000D940501E82410C4314435A46DA4013008D
:10863000620709D00F222240042A05D02200141D0F
:108640009442894149425B181A0262D501220023F3
:1086500000270DE68A4200D80AE7831E891907E73A
:108660000F231340042B00D1E6E5171D97429241DA
:1086700053429B44FA08E0E5002800D1D7E5711881
:10868000531EB14227D3A94215D358D01A0073E71D
:10869000002B00DC04E6012300229B44CDE50223ED
:1086A0004744474589415B429C46494289190C1918
:1086B000E344241A03E743465F0047459B41B8461D
:1086C0005B429E19023A8919A94200D054E74045FD
:1086D00000D051E7ABE51A00F6E71F215F4649429B
:1086E0000C1BE740202B07D01A49009B8C466344A3
:1086F00018005B4683401A43501E82413A430727C5
:108700000023174009D00F21002311401400042931
:1087100095D122005F075B021B0BD2081743002292
:10872000A6E5802359461B030B431B0317001B0BB5
:10873000064A9DE5BD42B2D89B460024BFE680456F
:10874000B9D31A00C3E7C046FF030000FF070000CB
:108750001E0400003E040000F0B54F464646D646D3
:108760008446C0B58046194E18030F034D00000B18
:108770005C0082463F0B6D0DC90F9146640DDB0F07
:108780000120B5420AD0B44203D0A54201D15745D9
:108790000CD01CBC90469946A246F0BD66463E43AE
:1087A000F7D1AC42F5D154461443F2D10120C8456B
:1087B000EFD1994207D0002DEBD163461F4338001B
:1087C000471EB841E5E70020E3E7C046FF07000089
:1087D000F0B54F464646D6464D00C0B50E03C90F0C
:1087E0008A462C491F035C008046360B6D0D91466E
:1087F0003F0B640DDB0F8D421ED08C4216D0002D36
:108800001ED130438446002C01D13A4323D0624626
:10881000002A1AD09A4529D0514602200139084031
:1088200001381CBC90469946A246F0BD3900114360
:10883000E5D002204042F4E73043FAD1AC420FD0F9
:10884000002C0FD13A43E7D00CE00122013B9343C7
:1088500018000130E5E763460020002BE1D0DBE79C
:108860003A43E6D19A45D7D1A542D5DCA54205DBEE
:10887000BE42D1D808D00020BE42D2D250460123F9
:10888000013898430130CCE7C845C5D80020C84519
:10889000F4D3C6E7FF070000F0B54F464646D6467C
:1088A0004D00C0B50E03C90F8A462E491F035C0058
:1088B0008046360B6D0D91463F0B640DDB0F8D42EC
:1088C00018D08C4211D0002D18D130438446002C92
:1088D0001ED13A431CD163460020002B30D05146B4
:1088E00002200139084001382AE039001143EAD05A
:1088F000022025E03043FBD1AC4226D0002C26D10B
:108900003A4324D15146022001390840013817E08A
:108910006246002A0FD09A45E1D1A54205DBBE424E
:10892000DDD819D00020BE420AD2504601230138BA
:108930009843013004E00122013B934318000130C9
:108940001CBC90469946A246F0BD3A43D0D19A4508
:10895000C5D1A542C3DCE0E7C845C0D80020C84562
:10896000E3D3EDE7FF070000F0B55746DE464E467D
:108970004546E0B5834606000F03480087B092469F
:108980001D003F0B400DCC0F002800D16FE0DE4BE7
:10899000984238D08023FF001B041F43730F3B43D2
:1089A0000193DA4B0027994600239B46F600814449
:1089B0002B0369001B0B52469846490DED0F002909
:1089C00000D185E0D04B994200D173E04346DA00F4
:1089D00080231B0413435246CC48520F8446134352
:1089E000524600206144D200894421006940009130
:1089F0008C46012149448A460F2F00D990E0C44992
:108A0000BF00CF59BF465B463B43019300D06AE1AC
:108A100002230827002681469B46C9E732005846B4
:108A2000019B61460091022800D175E0032800D126
:108A3000FEE1012800D02CE10023002700260025BC
:108A40003F032A0D3F0BB34812053A4302401B0572
:108A50001343009A5B00D1075B080B4330001900F9
:108A600007B03CBC90469946A246AB46F0BD5B467B
:108A70003B43019300D12FE1002F00D1A5E1380045
:108A800000F0C0FE03000B3B1C2B00DD96E11D2215
:108A9000D31A5A460100DA405E4608398F40130067
:108AA0008E403B4301939C4B00271B1A99460023A1
:108AB0009B467DE7414653460B4393498C46E14430
:108AC000002B00D01AE102220220174300228CE77B
:108AD000134300D10DE14346002B00D181E1404614
:108AE00000F090FE02000B3A1C2A00DD72E101004A
:108AF000434608398B4098461D239A1A5346D34063
:108B00001A004346134352468A404946081A82498E
:108B100089468144002068E77B4B002700268EE7CA
:108B2000140C1204120C1100370C3604350C794366
:108B300028008C462E006043604483465643210043
:108B4000300C80465846794340440291844506D90A
:108B50008846802149028C46E04441460291360411
:108B6000010C360C00048B4681191E0C1B041B0CD7
:108B70000391190079438C46280075436544A84643
:108B80005843050C45447743A94203D98021490243
:108B90008C466744290C8C4639000004000C2D04D7
:108BA0002D186144AB4405915946049101990F0475
:108BB0003F0C080C390051434243904602008C465A
:108BC000090C8B4662437C4344445C44A04503D972
:108BD0008021490288464244210C884661460904A6
:108BE000090C8C4639005943434370437E430F0CB4
:108BF000F6182404BE19644442448C46B34203D997
:108C000080235B0298464044029B61469846049B41
:108C1000370443449B46AB45AD416B420D04059977
:108C20002D0C8C467F196744FD18A8465D462D190A
:108C3000A542A44193466442A446C344DC448F4207
:108C4000BF4198459B4193459241A445A4415B4255
:108C50007F421F43360C52426442BF192243BF1861
:108C6000624638184302D20D039913436A020A433D
:108C7000501E82416146ED0D2A434E023243D90116
:108C800000D4B3E00126500832400243DE073243ED
:108C90005B08224C5444002C62DD510709D00F20A0
:108CA0001040042805D0101D9042924152429B185A
:108CB0000200D90104D580241948E400034054443B
:108CC0001848844200DD27E75E075B02D2081F0BCD
:108CD000630516435B0DB2E6002399460133042772
:108CE00000269B4664E60323019781460C279B469A
:108CF0005EE6012201201743002276E603230320CB
:108D00001F43434671E6C046FF07000001FCFFFF1A
:108D10004CB00000FFFF0F800DFCFFFFFF030000C1
:108D2000FFFFFFFEFE0700000023802700933F03A4
:108D30000026434B83E6019B3200A446584670E66A
:108D4000AC466EE6802701993F0339422DD03B4265
:108D50002BD11F433F033F0B00951600384B6EE6A7
:108D600001252D1B382D00DD66E61F2D40DC354822
:108D70001C005044160082408440EE40501E824148
:108D800034431443EB40620709D00F222240042AE7
:108D900005D02200141D9442804140421B181A0243
:108DA0003ED501230027002649E68027019B3F038B
:108DB0001F433F033F0B0094214B40E603005A46FC
:108DC000283B9A40002601926DE6584600F01AFDB5
:108DD000203057E603005246283B9A4013000022F9
:108DE00093E6504600F00EFD20307BE6CA4650E781
:108DF0001F201E004042041BE640202D03D0124CD1
:108E00005444A3401A43501E824132430726002790
:108E1000164009D00F200023104014000428B9D1B7
:108E200022005E075B021F0BD2081643002306E6F2
:108E300080273F031F433F033F0B1600004BFEE517
:108E4000FF0700001E0400003E040000F8B557466E
:108E50004E464546DE460C000903E0B5490A460F7A
:108E60005F0031431E03DB0F760A9B46530F3343EB
:108E7000C84E6500C000E40FD2006D0DA2468146C9
:108E80007F0D9C469046B74200D1B9E05B46012673
:108E900073409B46EE1BA34500D183E0002E63DDAB
:108EA000002F00D0B1E06346134300D123E1731ECD
:108EB000002B00D0BAE1861A6346B04280410125FA
:108EC000C91A4042091A0B0200D447E149024B0A71
:108ED00098464346002B00D189E1404600F092FCC1
:108EE0000300083B1F2B00DD7CE120223000D21A5A
:108EF0004146D040994002009E400A439D4200DD19
:108F00006AE15D1B6B1C1F2B00DD94E1202110002A
:108F10003500C91A8E40DA408840DD40711E8E410E
:108F2000110007222843002506433240002A09D0B9
:108F30000F233340042B05D0331DB342B641764294
:108F400089191E000B0200D43DE26A1C914B5505A5
:108F50006D0D9A4200D119E18F4AF6080A40570771
:108F600052023743120B9BE0002E00D0C5E06E1C6E
:108F70007605760D012E00DC48E16746861ACB1B8C
:108F8000B042BF417F42B8461F004346FF1A3B0034
:108F9000B8461B0200D55FE137439AD10022002476
:108FA000002579E0002E00DCFAE0002F00D18DE0F2
:108FB000784B9D4267D0802367461B041F43BC4605
:108FC000382E00DC52E1634613435A1E93411E18AB
:108FD00086428041404209180B0200D4BEE06D4B2E
:108FE00001359D4200D1D2E06B4A73080A4001214D
:108FF0000E401E435108D30707221E43324095E717
:109000001E00164300D045E740E7624B9D423AD030
:10901000802367461B041F43BC46382E00DDEBE06F
:109020001F2E00DC3AE133006746203BDF403B0067
:10903000202E05D04027BF1B6646BE4032439046D7
:109040004646721E96413343DAE0002B00D114E20B
:109050006346134300D168E180234E07C008C90866
:109060001B030643194208D06046C008184204D1C9
:1090700063460100D2085E071643F3009946C90013
:10908000720F444D11434B46DE08424B4F073743A6
:10909000CA089D4200D16EE012036D05120B6D0DE2
:1090A00000211203130B0A0D12051A433B4B2D0529
:1090B00013402B435B00E4075B082343380019008F
:1090C0003CBC90469946A246AB46F8BD6346134366
:1090D00011D0731E002B00D007E186188642804114
:1090E00061444042091801250B0237D502257BE770
:1090F0003E00614691463500C5E75C46002D00D034
:10910000E1E00B000343F3D0731C00D1ACE1214B31
:109110009F4200D13AE1F343382B00DD6FE11F2B72
:1091200000DD8CE120250E00ED1AAE40B0460600B1
:10913000AA46DE40454635432E005546D940A84054
:109140006346451EA8415B1A9C463043161AB2423C
:10915000924163465242991A3D00B4E607223240DA
:10916000002A00D0E4E60B4BF6084F073743CA0845
:109170009D4200D090E73B00134300D1A6E180233D
:109180001B031A431203120B024D89E7150000223C
:10919000002785E7FF070000FFFF7FFFFFFF0F802D
:1091A000002E00D0C7E06B1C5E05760D012E00DCA2
:1091B000F0E0C84DAB4200D1B9E085180A00854205
:1091C00089416244494251180722CE076D082E4357
:1091D000490832401D00A9E6BF49ED1A1140072297
:1091E0003240A3E6320028388240002686E630006E
:1091F00000F008FB203073E6634613435A1E934188
:10920000C61AB04280414042091A5CE60E00674629
:1092100006431743002D5ED1002E00D0F3E0002F4F
:1092200000D11EE15C46614691462CE7A94FBE4243
:109230007BD01E00F1E610001F3DE840202B03D03C
:109240004021CB1A9A401643731E9E4107220643C3
:1092500032400021002583E7161A6346B24280415E
:10926000591A40420B1A98465C4632E61F2E00DD22
:10927000ABE02027BB1B9A4663465746BB40994646
:1092800013004F46F3401F433B005746BA40571E5A
:10929000BA4113436246F240891898E62027BB1B67
:1092A0009A4663465746BB40994613004F46F340E3
:1092B0001F433B005746BA40571EBA41134362460C
:1092C000F240891A9CE7834B9F425FD080252D0492
:1092D0007342294320E7002E0CD1002F00D1D0E0AB
:1092E0005C46614691467B4DCDE67A4FBE421CD02E
:1092F0001E0065E6002F18D0C0084E0706438020E8
:10930000C9080003014208D06346DC08044204D1C6
:109310002100DA46D2085E071643F300994601247D
:109320005346C900720F11431C406A4DABE61D0045
:1093300000220027B4E6002D59D10B00034300D1D1
:10934000D6E6731C00D1B2E0624B9F421ED0F343BD
:10935000382B6FDC1F2B00DD97E020250E00ED1A67
:10936000AE40B0460600AA46DE40454635432E00D4
:109370005546A840D940451EA8418C440643B6181E
:1093800096429241514261443D0025E63D006146CE
:10939000914678E60B000343002D00D055E6002BE4
:1093A000F5D06346134300D16DE6861886428041AE
:1093B00061444042091800220B0200D4D0E6464B1B
:1093C00001351940B2E5B1465DE633006746203B02
:1093D000DF403B00202E05D04027BF1B6646BE4025
:1093E000324390464646721E96413343EFE5394B71
:1093F0009F42CBD080252D0473422943A8E7084320
:10940000411E8841A2E6002F00D13CE66346861A41
:10941000CF1AB0429B415B42FB1A98461B024ED5C5
:10942000161A6346B2429241591A5242891A5C4650
:1094300000227BE501430E00711E8E419FE71D0057
:109440000E00203DEE40B046202B04D04025EB1A04
:1094500099400843814648464346411E8841184387
:1094600074E60022002417E6161A6346B2429241BF
:10947000591A5242891A3D0025E561469146154D1B
:1094800001E680220024120379E61D000E00203D33
:10949000EE40B046202B04D04025EB1A99400843FB
:1094A00081464E464346711E8E411E4367E786182D
:1094B00096429B4161445B42C9183D008CE547469A
:1094C0003743CED007224146324049E600273A00D2
:1094D000E6E5C046FF070000FFFF7FFF70B50C4EBA
:1094E0000D031C0349005B002D0B490D240B5B0D84
:1094F000B14208D0064900208B4203D1144320001A
:10950000441EA04170BD05430120002DFAD1F1E7B2
:10951000FF07000030B5144D0A034B00120B5B0D22
:10952000C90F0024AB4211DD104CA34210DC802493
:10953000640322430E4CE41A1F2C0CDD0D48C31AA1
:10954000DA4013005C42002900D11C00200030BD2D
:10955000094BCC18FAE7094DE040AC4663449A4009
:1095600013000343EEE7C046FE0300001D040000A5
:109570003304000013040000FFFFFF7FEDFBFFFF3B
:1095800070B500282DD0C317C5185D40C40F280042
:1095900000F038F9154B1B1A5B055B0D0A2815DD29
:1095A0000B38854000222D032D0B002110002D03C8
:1095B0000A0D2D0B12052A430D4D1B052A4013439E
:1095C0005B00E4075B082343190070BD020029001B
:1095D000153291400A000B21081AC5402D032D0BAE
:1095E000E3E70024002300250022DEE71E0400003C
:1095F000FFFF0F8010B5041E25D000F003F9144BB7
:109600001B1A5B055B0D0A2812DD0B388440002213
:109610002403240B0021100024030A0D240B12053F
:1096200022430C4C1B05224013435B00590810BD1C
:1096300002002100153291400A000B21081AC44093
:109640002403240BE6E7002300240022E2E7C046BF
:109650001E040000FFFF0F804100090E4B1C70B577
:10966000DBB24602750AC40F012B14DDE0239B0018
:109670006D07360BCB1800210A0D280012051C4D72
:1096800032435B052A405B0813435B00E4075B0839
:109690002343190070BD002914D1002D1ED02800CD
:1096A00000F0B0F80A281CDC0B232A001B1ADA4051
:1096B000030015339D400F4B12031B1A5B05160B5D
:1096C0005B0DD8E7002D06D0320B802636036D07E0
:1096D0001643094BCFE7084B0026CCE700230026B2
:1096E000C9E703002A000B3B9A400025E3E7C04688
:1096F000FFFF0F8089030000FF070000F0B54C005A
:10970000640D0B03621C5B0A460F5205C90F1E4312
:10971000C500520D012A29DD374BE718FE2F1CDC4E
:10972000002F3BDD8001431E98410722F3006D0F9F
:1097300003432B431A40002A04D00F221A40042A64
:1097400000D004338022D2041A4024D00137FAB268
:10975000FF2F02D09B01580A01E0FF2200204002A7
:10976000D205400AC90710430843F0BD3543002C19
:1097700004D1002D0AD100220020F0E7002DECD00A
:109780008020C0033043FF22E9E7002400235B026E
:10979000580AE2B2E3E7DB083C00F8E73B00173386
:1097A000F3DB80231B0433431E26F61B1F2E14DD20
:1097B00002225242D71B1A00FA401700202E04D072
:1097C0000E4A94466444A3401D432B005D1EAB41EA
:1097D00007223B431A400027ADE7094A2800A21898
:1097E000954093406C1EA541F04007222B43034354
:1097F0001A4000279FE7C04680FCFFFFA2FCFFFF46
:1098000082FCFFFF1C2101231B04984201D3000CA2
:1098100010391B0A984201D3000A08391B099842E3
:1098200001D30009043902A2105C40187047C046F9
:109830000403020201010101000000000000000019
:1098400010B5002903D1FFF7DDFF203002E0081C2E
:10985000FFF7D8FF10BDC0460023C25C0133002AC9
:10986000FBD1581E704700001F231840064B18609C
:10987000054B1B681B06FBD5034B186980B21A68A1
:1098800080218A431A60704700B0034010B5C0B20F
:10989000FFF7EAFF10BD000010B5FEF7FFF816490C
:1098A000FDF7E6FD1549FDF7D1FC041C011C12482B
:1098B000FDF710FF011C201CFDF7C8FCFFF7CCFED4
:1098C00001F0C6F800220E4BFEF744FC0D4A0E4B89
:1098D000FEF724F902000B0000200C49FEF73AFCC9
:1098E0000B4A0C4BFFF7B2FA00220B4BFEF716F9AE
:1098F000FFF704FF10BDC04600404E4500FF7F4704
:1099000000DCAE4083DBB5DCE1796B3F0000F03F6B
:1099100066666666661271400000E03F224B1A6A76
:1099200040218A431A625A6A35398A435A625A6A0E
:1099300004390A435A625A6A79310A435A621A4B05
:109940001B681B06FBD5184B5B6A5B062AD4164ABC
:10995000D36CDBB2916C5B18DBB2516C5B18DBB281
:10996000116C5B18DBB2D16B5B18DBB2916B5B18CF
:10997000DBB25B08D362D36EDBB2916E5B18DBB2F5
:10998000516E5B18DBB2116E5B18DBB2D16D5B18E8
:10999000DBB2916D5B18DBB25B081363536A802105
:1099A0008B435362C046704700B00340F8B51D00BA
:1099B000234E244C375980231B053B433351083A2F
:1099C000D3B2052B07D89A001F4B9B589F46002205
:1099D00004E0082202E00C2200E0042251231A4392
:1099E0001A4CA260E3680F229343E36001281BD066
:1099F000164AD36810208343D360144800230362BF
:109A0000426A03332B4013430C2213434362012960
:109A10000FD00E4A136820218B4313600B4A136842
:109A200040218B431360F8BDE3680F300343E360CC
:109A3000E3E703681F310B430360FFF76FFFEDE7B8
:109A4000007004403C1000008CB0000000B00340E7
:109A500010B5000A03231022FFF7A8FF10BD000075
:109A6000264B274AC02189029950264958588022FE
:109A7000920002435A50244B9B781B0704D5224A7C
:109A8000937808210B4393701C4B1D4A8021490297
:109A900099501E4A99581E480140995019681D480E
:109AA0000140196099581C4808408021490401432D
:109AB00099501A4B06221A705A7840210A405A705F
:109AC000D97849B21F2211407F3A0A43D2B2DA70E4
:109AD000002213490A701A715A71104B9B79DB06E8
:109AE000FBD50E4B9A790C231A42FAD10349054A49
:109AF0008858F8239B0103438B5070470070044043
:109B0000441000003810000000D00740041000008E
:109B1000FFFFFCFFFFFFF3FFFFFFFFFC00400640DD
:109B2000005006400C4B00221A609A60002800D1B9
:109B30000A300A4B58430011074A50600848036A2C
:109B40001B021B0AC02109060B4303621368032191
:109B50000B4313607047C04610E000E080BB00007C
:109B600000ED00E070B572B600F06AF92F4B0022EC
:109B70001A705A709A70013201210D2000F024F9F8
:109B80000A20FFF7CFFFE1214902002000F0BAF9D7
:109B900000210220FFF75CFF00210720FFF758FF9C
:109BA000002000F0CBFA62B6214C200000F03EFF0E
:109BB000204800F03BFF204800F038FF1F4800F02D
:109BC00035FF1F4800F032FF1E4800F02FFF1E48EF
:109BD00000F02CFF200000F029FF0022412517E0B3
:109BE00000210D2000F0CEF80B350220FFF74EFECD
:109BF000FFF752FEFDF732FF0100144800F016FF98
:109C00000720FFF743FE0100114800F00FFF22007C
:109C1000C046064B9C789442FAD0412DE0D00121F9
:109C20000D2000F0AFF84125DFE7C0468C0400208E
:109C3000A4B00000DCB00000F4B0000004B10000EB
:109C40003CB1000074B10000A4B10000E8B1000014
:109C5000FCB1000010B501F067F910BD00238B4284
:109C600006D28202D25CFF2A05D101339BB2F6E70D
:109C70000120C0B270470020FBE700000F4B3022EC
:109C80001A70EFF31083002B12D172B62F3A0B4BE0
:109C900080211970094B1B785BB2002BFADA012A7C
:109CA00008D0064B1A7831231A4205D1002070479C
:109CB0000022ECE762B6F4E70120F8E7000002407A
:109CC00010B58402164B0922DA718204120E9A71C1
:109CD0008006000E5871E2B21A71FFF7CFFF01281B
:109CE0001BD0104B9C4201D9002010BD0C4B06220A
:109CF000DA7100229A7104325A7108321A71F33201
:109D0000DA729A725A72013A1A72FFF7B7FF012893
:109D100001D00020E9E70130E7E70120E5E7C04690
:109D200000000240FF030000F8B50F001400124BC2
:109D30000622DA7105000026B74218D92A02120E4F
:109D40000D4B9A712A04120E5A71EAB21A71E27816
:109D5000DA72A2789A7262785A7222781A72FFF7CF
:109D60008DFF012805D0043604350434E4E70020D3
:109D7000F8BD0220FCE7C04600000240030A0B7059
:109D80001070704730B583B00D006B46DC1D9A1D16
:109D90002100FFF7F3FF23789B000A4A9B58012D0F
:109DA00008D01A6869468879012181408A431A607F
:109DB00003B030BD1A6869468879012181400A43A1
:109DC0001A60F5E70CB20000F0B585B004000F0092
:109DD000019202AB9E1DDD1D32002900FFF7CEFF70
:109DE0002A789200134BD358134950583278920076
:109DF000D158124D2940D15032789200D658802146
:109E000049003143D150012F08D0436902AA91790A
:109E100001228A409343436105B0F0BD436902AA21
:109E2000917901228A401343436101992000FFF791
:109E3000A9FFF1E720B200000CB20000FFF8FFFF1D
:109E40000349882252018B580C2083438B50704762
:109E500000700440034A044B5521D1505531D15074
:109E60007047C046007004400411000080B51D4FCB
:109E7000BD4418213F20FFF7F1FE00282BD180229E
:109E8000D021D200C90102A8FFF7E4FE78231B68A5
:109E9000209A9A4210D01A20FFF712FF08231B685D
:109EA000049378231B68019320938021D02002AA79
:109EB000C900C001FFF738FF0B4BD022D2019A60D6
:109EC0000A4BE02292011A60094800F0AFFD81239D
:109ED000DB009D4480BDFC20064A18210002FFF7EC
:109EE00023FFCCE7F8FBFFFF00ED00E0900400202B
:109EF00050B2000034B20000022801D8012070479F
:109F00000020FCE770B504000D00FFF7F5FF002806
:109F10002BD0002C2AD0012C00D16DE0022C00D1D6
:109F200077E0013CA400414BE458E3780C229343D2
:109F3000E3703F4B186840082901FCF7B5FE237811
:109F40001F22934302121F210A4013432370C0B201
:109F500060700023A370A3716371E3787F221340C4
:109F6000E370E3780C221343E37070BD314B324A47
:109F700098588021C9040143995099582F480140AD
:109F800099502F49086D8022D20010430865486D12
:109F9000104348652B49585802435A502A4CE378DD
:109FA0000C229343E3702901214B1868FCF77CFED7
:109FB00023781F22934302121F210A401343237068
:109FC000C0B260700F23A3720023A370A371237229
:109FD000637223791F221343237163794022524213
:109FE0001343DBB26371E378BF321340E370E3786D
:109FF0000C221343E370B8E7114BC02292001A60A1
:10A000005A600C490F4A885880231B0103438B5028
:10A0100087E70B4BC02292001A645A640549094A2B
:10A02000885880235B0103438B507AE77CB20000A1
:10A03000000400200070044004100000FFFFFEFF39
:10A0400000D004403410000000A0064070B50500A8
:10A050000C00431E9B00114A9E58FFF74DFF00283D
:10A0600016D0002304E0327952B2002A11DB01330A
:10A070000B4A934208D8002DF5D10A4A127952B200
:10A08000002AF4DA074AD471054A934203D8012022
:10A0900070BDF471F8E70020FAE7C0467CB200001A
:10A0A000BAFB000000A0064070B504000E00FFF7E8
:10A0B00023FF00280CD00025715D002907D0200067
:10A0C000FFF7C4FF002803D00135ADB2F4E701204B
:10A0D00070BD000070B504000E00431E9B00144AC2
:10A0E0009D58FFF709FF002801D0002306E0002358
:10A0F000337070BD2A79920615D401330D4A93420C
:10A100000AD8002CF6D10C4A12799206F5D50A4AE3
:10A11000D079C0B201223270064A9342E9D90023B5
:10A120003370FF20E5E7E879C0B201223270F3E72F
:10A130007CB20000BAFB000000A0064070B504002D
:10A14000431E9B000D4A9D58FFF7D6FE00280ED0F7
:10A15000002C0DD10A4AD37820210B43D370094B30
:10A160001B5D1F221A4001239340074A136070BDF4
:10A17000EB7820221343EB70F1E7C0467CB200007D
:10A1800000A006400404002000E100E030B583B0E8
:10A1900072B66B46DC1C21000020FFF79BFF237882
:10A1A000002B01D0712802D062B603B030BD0E483A
:10A1B00000F03CFC0220FFF769FBFFF76DFB051C7C
:10A1C0000720FFF763FB6421FCF76EFD84B2281CB7
:10A1D000FDF744FC01A908704C7000238B7000202F
:10A1E000FFF762FFE0E7C04684B2000083780133E6
:10A1F000DBB283703B2B11D900238370437801338A
:10A20000DBB243703B2B09D9002343700378013341
:10A21000DBB20370172B01D90023037070470000D5
:10A2200010B5084C237801332370FFF713FE237811
:10A23000632B00D810BD034B00221A700248FFF7B1
:10A24000D5FFF7E7880400208C04002010B50C002F
:10A250001368012B05D0022B07D02368013323603C
:10A2600010BD536840B29847F7E793681870936839
:10A2700001339360F1E7F0B583B016001D00471C71
:10A2800000230370002A1FD00C68002C01D0002688
:10A290000BE0303343700126300003B0F0BD3023B3
:10A2A000591A397001360137019C002CF4D029006D
:10A2B0002000FCF783FD019029002000FCF764FEDC
:10A2C0000029ECDB3031ECE70C68002C08D130239E
:10A2D00043700126E0E737343C7001360137040053
:10A2E000002CD9D029002000FCF7DEFC03006B43D2
:10A2F000E41A092CEFD83034EEE7F8B504000D006D
:10A3000017001E0005E0320039003020FFF79EFFE5
:10A310000134AC42F7DBF8BDF8B504000D001700BE
:10A320001E0005E0320039002020FFF78FFF0134C6
:10A33000AC42F7DBF8BD10B5C1B20220FFF786FED4
:10A3400010BD0000F0B5D6464F4680B59BB0040066
:10A35000894615001422002115A800F0EEFD4C22BC
:10A36000002102A800F0E9FD266867683000390086
:10A37000FCF76EFE8246FFF73DF902000B0030004D
:10A380003900FEF763FD06000F00002D0ED14B4A89
:10A390004B4BFEF7E9FAFCF779FE0400019100252A
:10A3A00015E00022474BFEF7DFFA25006C1E002D5A
:10A3B000F7D1FCF76BFE04000191F0E70022414B5E
:10A3C00030003900FEF7D0FA06000F0001350022F8
:10A3D0003D4B30003900FCF7F3FD0028EED16F1E35
:10A3E0005346002B21D130334A4613702F3B9A46F7
:10A3F00053465D1C2E234A4651465354019B23432A
:10A4000023D0002639E0751C0A215046FCF7D2FC07
:10A41000B60015ABF1500A215046FCF745FC8246C8
:10A420002E005346002BEED10CE00026F9E7013E4A
:10A43000B20015ABD35830334A465146535401232A
:10A440009C46E244002EF2D1D2E730335355013519
:10A450002AE00A22002320000199FCF7D9FD731C91
:10A460009A46B60002ABF2500A220023200001995E
:10A47000FCF7CEFD040001915646019B2343E8D131
:10A4800005E0B300002202A95A50013F0136002F17
:10A49000F7D107E0013EB30002AA9B5830334A4689
:10A4A00053550135002EF5D14B465B1900221A7029
:10A4B00028001BB00CBC91469A46F0BD00A0D88580
:10A4C00057347643000024400000F03FF0B5DE46EC
:10A4D00057464E464546E0B595B000900D00904673
:10A4E0000BAC21220021200000F027FD3023237037
:10A4F00000230A930133019300239A460BE0009C4A
:10A5000022000AA90D20FFF7A1FE22000AA90A20B5
:10A51000FFF79CFE013500202856002800D17CE280
:10A52000252822D00A28EAD0009A0AA9FFF78EFE31
:10A53000F0E701231E43050000291BD1681C0123FD
:10A54000EB56203BDAB2102A12D89300BE4AD358F9
:10A550009F4602231E43EEE704231E43EBE7082336
:10A560001E43E8E710231E43E5E700260021E3E74A
:10A570000121E1E7002400231F0000E00F00002F6D
:10A580000ED1681C0123EB561A00303AD2B2092AC8
:10A59000F4D8A20012195400303BE4180500EEE78D
:10A5A000BB466F1C0123EB562E2B19D00023994676
:10A5B00001936B1C0122AA56682A04D06C2A27D06A
:10A5C0004C2A2AD02B005D1C012018560300583B52
:10A5D000DAB2202A00D918E293009C4AD3589F4649
:10A5E0000023002000E0584600280ED17D1C0122E7
:10A5F000BA5611003039C9B20929F4D89900C918DE
:10A600004B00303A9B182F00EEE799463D00D0E70B
:10A610000122514611438A46D5E702225146114391
:10A620008A46D0E743460433029343461B680993A6
:10A630000A23012209A90BA8FFF71DFE81460BAFD3
:10A640004F44099B002B07DBB30719D501239C4618
:10A65000E1442A33984604E001239C46E1442C332C
:10A66000984633071CD54346002B13D1009B0AAAFA
:10A6700021004846FFF741FEA146029B984662E151
:10A68000042333409846ECD001239C46E1441F3319
:10A690009846E6E7009A0AA94046FFF7D7FDE5E7A6
:10A6A000F30705D54346002B16D1029B98464AE195
:10A6B000009B0AAA21004846FFF72EFE4346002BC6
:10A6C00002D1029B98463EE1009A0AA94046FFF754
:10A6D000BDFD029B984636E1009A0AA94046FFF765
:10A6E000B5FD029B98462EE10C2343449B4643460E
:10A6F00059689F6802910A003B0006920793002266
:10A70000002302983900FCF75BFC002806D1B30750
:10A7100024D40427374008D0202706E0029A80215D
:10A7200009067B18069207932D27019B002B17D152
:10A730005346002B1BD108220BA906A8FFF702FEE7
:10A740000290330720D5002F18D1009B0AAA2100C0
:10A750000298FFF7D2FD02940BAF32E02B27E4E71B
:10A760004A460BA906A8FFF7EDFD0290E9E74A4625
:10A770000BA906A8FFF7E6FD0290E2E7009A0AA9F6
:10A780003800FFF763FDE0E7F30707D5002FE3D0BC
:10A79000009A0AA93800FFF759FDDDE7009B0AAAD5
:10A7A00021000298FFF7B8FD002FD5D0009A0AA922
:10A7B0003800FFF74BFDCFE70137009A0AA9FFF7F2
:10A7C00045FD002038560028F6D1F30701D4D846BD
:10A7D000A0E6009B0AAA21000298FFF79DFDD8463B
:10A7E00098E643460433029343461B6805931023BF
:10A7F000002205A90BA8FFF73EFD81460BAF4F4491
:10A8000008233340984623D01023334098460FD175
:10A81000009B0AAA21004846FFF76FFDA146F306F8
:10A8200000D49EE04346002B30D0029B98468AE03D
:10A83000009A0AA93020FFF709FD009A0AA978209A
:10A84000FFF704FDD846E3E78CB20000D0B2000069
:10A85000F307E4D410233340984602D002239C46E9
:10A86000E144009B0AAA21004846FFF755FD4346F4
:10A87000002BD4D0009A0AA93020FFF7E7FC009AF9
:10A880000AA97820FFF7E2FCD846C8E7009A0AA98F
:10A890003020FFF7DBFC009A0AA97820FFF7D6FCEE
:10A8A00002239C46E144029B98464CE043461F1D10
:10A8B0001B6805930823002205A90BA8FFF7DBFC02
:10A8C0008146B8460BAF4F4433072FD4F3073AD431
:10A8D000009B0AAA21004846FFF71EFD33E04346CD
:10A8E0001F1D1B6805930223002205A90BA8FFF773
:10A8F000C2FC8146B846E5E743461F1D1B68059329
:10A900001023002205A90BA8FFF7B5FC8146B84625
:10A91000D8E743461F1D1B6805930A23002205A99B
:10A920000BA8FFF7A8FC8146B846CBE7009B0AAA14
:10A9300021004846FFF7E1FCA14604E0013F009AF0
:10A940000AA9FFF783FC002038560028F6D1F30748
:10A9500000D4DFE5009B0AAA21004846FFF7DCFC93
:10A96000D8E5029B9846EEE743461C1D002018568A
:10A97000009A0AA9FFF76AFCA046CBE543460433D8
:10A98000029343461F68002F44D03800FEF764FF4F
:10A99000039001231E4013D04B46002B1BD00020F8
:10A9A000385600281BD04B46002BF8DD01235B42B4
:10A9B0009C46E1440137009A0AA9FFF747FCEEE7FD
:10A9C000009B0AAA2100FFF7A7FCE5E70137009AE0
:10A9D0000AA9FFF73BFC002038560028F6D1002ECC
:10A9E00002D1029B984695E5009B0AAA2100039894
:10A9F000FFF792FC029B98468CE543461B680A9A37
:10AA00001A6004239C46E04484E5009A0AA9FFF7F3
:10AA10001DFC7FE5029B98467CE50A9815B03CBC7E
:10AA200090469946A246AB46F0BDC0460FB400B56D
:10AA300085B001230193054B029306AA02CA01A81F
:10AA4000FFF744FD05B008BC04B0184737A3000069
:10AA5000F0B5C64600B58CB004000D0000F080F8DB
:10AA60003A4B06001B780F005BB2984601330FD0BB
:10AA700022002B0020002900FEF730FD002807D11E
:10AA80000022002320002900FCF7AEFA002805D0A0
:10AA9000300039000CB004BC9046F0BD2C4B0A903D
:10AAA000039343460494059506940795002B1AD109
:10AAB000E022284B1206089209932000002200236E
:10AAC0002900FCF777FA002838D00223029302A865
:10AAD00000F01CFA002817D00A9B0193002B18D114
:10AAE000089E099FD4E700221B4B2000089209937F
:10AAF000290000220023FCF75DFA00280FD0022372
:10AB000002934346022BE2D100F008FA22230360AD
:10AB1000E2E700F003FA0A9B01930360E0E70123F8
:10AB200002934346022B0BD100F0F8F92123036076
:10AB30000A4800F0EDF908900991CDE7012302934E
:10AB400002A800F0E3F90028F2D1EDE707040020A5
:10AB500054B30000FFFFEFC70000F0FFA0B10000FA
:10AB6000F0B5D6464F464646C0B5CA4A86B00B0039
:10AB7000914200DDCCE04A005208024300D1D6E009
:10AB8000002900DAE6E0C44B0022FDF7EDFE362591
:10AB9000C24C0B006D42A34200DDBEE01A15C04C52
:10ABA0001B031B0B9846A4468024BE4B64034344FE
:10ABB0002340BD4C624452195C4045461B159946E2
:10ABC0002543B94B290091440022FEF73FF9434643
:10ABD00002331B0306000F001B0B0022022B00DCBC
:10ABE000ACE08023DB05FCF799FF02000B0030008E
:10ABF0003900FDF7AFFA040048460D00FEF7C0FC2F
:10AC00002200009001912B0020002900049405955A
:10AC1000FDF7AAFE0D000400A449220041442B00C8
:10AC20008A462000290002940395FDF79DFE04004A
:10AC30000D009F4A9F4BFDF797FE9F4A9F4BFCF7E5
:10AC40006DFF22002B00FDF78FFE9D4A9D4BFCF708
:10AC500065FF22002B00FDF787FE9B4A9B4BFCF70C
:10AC60005DFF029A039BFDF77FFE994A02900391D4
:10AC7000984B20002900FDF777FE974A974BFCF789
:10AC80004DFF22002B00FDF76FFE954A954BFCF718
:10AC900045FF22002B00FDF767FE0B000200029823
:10ACA0000399FCF73BFF0D0041468F4B04005B1AF4
:10ACB00051460B43002B00DC95E000228B4B30000B
:10ACC0003900FDF751FE32003B00FDF74DFE0A0052
:10ACD0000100130002910392020029002000FCF7FA
:10ACE0001DFF049A059BFDF73FFE4B4604000D0037
:10ACF000002B00D08DE002000B0002980399FEF7B4
:10AD0000A5F802000B0030003900FEF79FF808E0BC
:10AD1000624C0025A34200DC40E702000B00FCF778
:10AD2000FDFE06B01CBC90469946A246F0BD00222E
:10AD3000002300206E49FDF70DFAF2E70023FCF72F
:10AD400039F900280ED04B46002B00D084E00020BB
:10AD50000021E6E70200FEF779F800220023FDF764
:10AD6000F9F9DEE7634A644B30003900FDF7FCFD7A
:10AD700002000B0000205D49FEF768F83200040075
:10AD80000D003B0030003900FDF7EEFD0B00020026
:10AD900029002000FDF7E8FD4B4604000D00002BC4
:10ADA00030D04846FEF7ECFB00900191534A544BDB
:10ADB000FDF7DAFD534A0290039100980199524B36
:10ADC000FDF7D2FD02000B0020002900FEF73EF83F
:10ADD00032003B00FEF73AF802000B00029803999C
:10ADE000FEF734F89DE722002B0030003900FEF713
:10ADF0002DF8049A059BFDF7B7FD4B4604000D00A6
:10AE0000002B41D122002B0030003900FEF71EF844
:10AE100087E73A4A3A4B00980199FDF7A5FD394A70
:10AE20000490059100980199374BFDF79DFD220094
:10AE30002B00FCF773FE02000B0002980399FEF74B
:10AE400005F832003B00FEF701F802000B00049801
:10AE50000599FDF7FBFF64E74846FEF791FB274A9B
:10AE6000274B04000D00FDF77FFD264A06000F006A
:10AE7000254B20002900FDF777FD02000B00300074
:10AE80003900FCF74BFE4CE71C4A1D4B009801991A
:10AE90008EE7C046FFFF0F0000005043FFFFEF7F2B
:10AEA00001FCFFFF645F09000000F03F86EBF9FF43
:10AEB00044523EDF12F1C23FDE03CB966446C73FE9
:10AEC000599322942449D23F935555555555E53F02
:10AED0009FC678D0099AC33FAF788E1DC571CC3F0D
:10AEE00004FA97999999D93F51B806000000E03FBC
:10AEF000000050C3555555555555D53F0000E0FE4F
:10AF0000422EE63F763C7935EF39EA3D0020704726
:10AF1000002001497047C0460000F87F014B1868C7
:10AF20007047C04608040020002310B59A4200D1A3
:10AF300010BDCC5CC4540133F8E7030012189342EF
:10AF400000D1704719700133F9E70000CA7300009F
:10AF5000067300002A730000C87200002A73000004
:10AF6000A67300002A730000C87200000673000078
:10AF700006730000A6730000C8720000FC73000096
:10AF8000FC730000FC730000B27300000673000045
:10AF9000067300002A730000C67200002A730000C6
:10AFA000A67300002A730000C6720000067300003A
:10AFB00006730000A6730000C6720000FC73000058
:10AFC000FC730000FC730000B073000068750000A3
:10AFD0001275000012750000407600000E7500002A
:10AFE0000E75000036760000407600000E750000F9
:10AFF000367600000E7500004076000044760000B2
:10B0000044760000447600004C760000F88300008F
:10B010006A820000AE82000012820000AE82000050
:10B020009E830000AE820000128200006A8200004F
:10B030006A8200009E830000128200000A820000E3
:10B040000A8200000A820000AC830000208B00000E
:10B05000228A0000228A0000408D00001C8A000025
:10B060001C8A0000288D0000408D00001C8A000012
:10B07000288D00001C8A0000408D0000368D0000E5
:10B08000368D0000368D0000448D0000CE99000002
:10B09000CE990000D2990000D2990000DA99000000
:10B0A000DA9900002D2D2D2D2D2D2D2D2D2D2D2D11
:10B0B0002D2D2D2D2D2D2D2D2D2D2D2D2D2D2D2DC0
:10B0C0002D2D2D2D2D2D2D2D2D2D2D2D2D2D2D2DB0
:10B0D0002D2D2D2D2D2D2D2D2D2D0A00BDF0BAF944
:10B0E000C2ABCCE1CABEA3BA4144CAB5C0FD200A76
:10B0F000000000002020A2D920C0B6B5C6C9C1CB2F
:10B10000B80A00002020A2DA20C3BFC3EBB6C1C832
:10B11000A1D2BBB4CECEC2B6C8B4ABB8D0C6F7B518
:10B12000C44144B2C9BCAFD6B5A3ACB2A2CDA8B994
:10B13000FDB4AEBFDACAE4B3F6200A002020A2DBD9
:10B1400020CDA8B9FDC9CFCEBBBBFAB4AEBFDAB330
:10B15000CCD0F2C5E4BACFB4AEBFDAD6D0B6CFD633
:10B16000F7B6AFBBF1C8A14144B2C9BCAFD6B52058
:10B170000A0000002020A2DC20D2D4D7D6B7FBB42E
:10B18000AEB5C4D0CECABDCAE4B3F6B2C9BCAFB581
:10B19000C4CAFDBEDDB8FCBCD3D6B1B9DB20200AE1
:10B1A000000000002020A2DD20CAD4D7C5B1E0D025
:10B1B000B4B8DFBCB6D3EFD1D4B3CCD0F2A3ACBD1E
:10B1C000ABB2C9BCAFB5C4CAFDBEDDD2D4CDBCB133
:10B1D000EDA1A2C7FACFDFB5C8D0CECABDB1EDCFC1
:10B1E000D6B3F6C0B4200A0020BBB7BEB3CEC2B6F9
:10B1F000C8A3BA25642D2D0A0000000020B9E2D5AD
:10B20000D5A3BA25642D2D0A0000000000F00F40E0
:10B2100040F00F4080F00F40C0F00F4000F10F40B1
:10B220000090044000A0044000B0044000C004406E
:10B2300000D004403031323334353637383941426A
:10B24000434445463230323030373136000000005A
:10B250002020A1BE55736572CCE1CABEA1BFA3BABE
:10B26000BDABBDF8C8EB55736572B5C46D61696E51
:10B270002829D6B4D0D02E2E2E0D0A0000B00640BC
:10B2800000C0064061736B0A0000000058A5000072
:10B2900070A5000070A5000064A5000070A5000066
:10B2A00070A5000070A5000070A5000070A500004A
:10B2B00070A5000070A5000052A5000070A5000058
:10B2C00032A5000070A5000070A500005EA500007A
:10B2D000E2A700000AAA00000AAA00000AAA0000C9
:10B2E0000AAA00000AAA00000AAA00000AAA00008E
:10B2F0000AAA00000AAA0000DEA8000068A900004F
:10B3000024A600000AAA0000E8A600000AAA00007D
:10B310000AAA000024A600000AAA00000AAA000047
:10B320000AAA00000AAA0000FAA90000ACA80000BE
:10B33000F8A800000AAA00000AAA00007CA90000E0
:10B340000AAA000012A900000AAA00000AAA000026
:10B35000E2A700006C6F6700F8B5C046F8BC08BCF7
:10B360009E467047F8B5C046F8BC08BC9E4670477C
:08B3700058BDFF7F0100000041
:04B37800396C00002C
:04B37C00116C000050
:10B38000006CDC020C0D0E010C040020000000001B
:10B3900000000000000000000000000000000000AD
:10B3A000000000000000000000000000000000009D
:10B3B000000000000000000000000000000000008D
:10B3C000000000000000000000000000000000007D
:10B3D000000000000000000000000000000000006D
:0CB3E00000000000000000000000000061
:0400000300006C5934
:00000001FF
