:1068000000180020596C0000A16C0000A16C000071
:106810000000000000000000000000000000000078
:10682000000000000000000000000000A16C00005B
:106830000000000000000000A16C0000A16C00003E
:10684000A16C0000A16C0000A16C0000A16C000014
:10685000A16C0000A16C0000A16C0000A16C000004
:10686000A16C0000A16C0000A16C0000A16C0000F4
:1068700061A40000A16C0000A16C0000A16C0000EC
:10688000A16C0000A16C0000EDA40000A16C000050
:10689000A16C0000A16C0000A16C0000A16C0000C4
:1068A000A16C0000A16C0000A16C0000A16C0000B4
:1068B000A16C0000A16C0000A16C0000A16C0000A4
:106C0000FFFFFFFFFFFFFFFFFFFFFFFFFEFFFFFF95
:106C100010B5064C2378002B07D1054B002B02D072
:106C2000044800E000BF0123237010BD14040020BD
:106C3000000000001CB60000044B10B5002B03D070
:106C40000349044800E000BF10BDC046000000003A
:106C5000180400201CB6000072B602F0BFFB62B63A
:106C60000A490B4A0B4B9B1A03DD043BC858D05012
:106C7000FBDC0949094A521A03DD00208850043A16
:106C8000FCDA02F0ABFF02F00BFC000044B600009F
:106C90000004002014040020140400203404002008
:106CA00000B5C04600BDC046002243088B4274D3E5
:106CB00003098B425FD3030A8B4244D3030B8B42FD
:106CC00028D3030C8B420DD3FF22090212BA030C06
:106CD0008B4202D31212090265D0030B8B4219D3E7
:106CE00000E0090AC30B8B4201D3CB03C01A524107
:106CF000830B8B4201D38B03C01A5241430B8B424F
:106D000001D34B03C01A5241030B8B4201D30B0337
:106D1000C01A5241C30A8B4201D3CB02C01A52415E
:106D2000830A8B4201D38B02C01A5241430A8B4221
:106D300001D34B02C01A5241030A8B4201D30B020A
:106D4000C01A5241CDD2C3098B4201D3CB01C01A24
:106D5000524183098B4201D38B01C01A524143092E
:106D60008B4201D34B01C01A524103098B4201D31C
:106D70000B01C01A5241C3088B4201D3CB00C01A89
:106D8000524183088B4201D38B00C01A5241430801
:106D90008B4201D34B00C01A5241411A00D2014626
:106DA000524110467047FFE701B5002000F0F0F8AF
:106DB00002BDC0460029F7D076E7704703460B4373
:106DC0007FD4002243088B4274D303098B425FD3E4
:106DD000030A8B4244D3030B8B4228D3030C8B4210
:106DE0000DD3FF22090212BA030C8B4202D31212F6
:106DF000090265D0030B8B4219D300E0090AC30BCB
:106E00008B4201D3CB03C01A5241830B8B4201D377
:106E10008B03C01A5241430B8B4201D34B03C01A60
:106E20005241030B8B4201D30B03C01A5241C30AD8
:106E30008B4201D3CB02C01A5241830A8B4201D349
:106E40008B02C01A5241430A8B4201D34B02C01A33
:106E50005241030A8B4201D30B02C01A5241CDD2D8
:106E6000C3098B4201D3CB01C01A524183098B4223
:106E700001D38B01C01A524143098B4201D34B010C
:106E8000C01A524103098B4201D30B01C01A52416F
:106E9000C3088B4201D3CB00C01A524183088B42F6
:106EA00001D38B00C01A524143088B4201D34B00DF
:106EB000C01A5241411A00D2014652411046704751
:106EC0005DE0CA0F00D04942031000D34042534056
:106ED00000229C4603098B422DD3030A8B4212D316
:106EE000FC22890112BA030A8B420CD38901921148
:106EF0008B4208D3890192118B4204D389013AD085
:106F0000921100E08909C3098B4201D3CB01C01A59
:106F1000524183098B4201D38B01C01A524143096C
:106F20008B4201D34B01C01A524103098B4201D35A
:106F30000B01C01A5241C3088B4201D3CB00C01AC7
:106F4000524183088B4201D38B00C01A5241D9D2DF
:106F500043088B4201D34B00C01A5241411A00D260
:106F60000146634652415B10104601D34042002B5C
:106F700000D54942704763465B1000D3404201B5DB
:106F8000002000F005F802BD0029F8D016E7704790
:106F90007047C0468446101C62468C46191C6346E6
:106FA00000E0C0461FB501F053F9002801D40021CC
:106FB000C8421FBD10B501F0ABF84042013010BD12
:106FC00010B501F045F9002801DB002010BD0120BB
:106FD00010BDC04610B501F03BF9002801DD0020CE
:106FE00010BD012010BDC04610B501F0CDF800283D
:106FF00001DC002010BD012010BDC04610B501F01D
:10700000C3F8002801DA002010BD012010BDC046E1
:107010008446081C6146FFE71FB500F0C7F9002849
:1070200001D40021C8421FBD10B500F049F940420B
:10703000013010BD10B500F0B9F9002801DB0020C7
:1070400010BD012010BDC04610B500F0AFF90028FA
:1070500001DD002010BD012010BDC04610B500F0BC
:1070600057F9002801DC002010BD012010BDC046EA
:1070700010B500F04DF9002801DA002010BD012004
:1070800010BDC046002B11D1002A0FD1002900D11C
:10709000002802D00021C943081C07B4024802A1FD
:1070A0004018029003BDC046E9FEFFFF03B46846E6
:1070B00001B5029800F042F8019B9E4602B00CBC5C
:1070C0007047C04670B500220C4B04000D00FFF75E
:1070D00095FF002804D12000290001F0DBFE70BDDF
:1070E000064B00222000290001F08CFB01F0D2FEAB
:1070F00080231B069C466044F1E7C0460000E04147
:1071000070B500220B4B0D00040001F009F9FFF7E8
:10711000D9FF060001F02EFF0022074B01F000F915
:1071200002000B002000290001F06CFBFFF7CAFFF2
:10713000310070BD0000F03D0000F041F0B54F4659
:107140004646D646C0B5040082B00D00914698462A
:107150008B422FD82CD04146484602F031F8290006
:107160000600200002F02CF8331A9C46203B9A4679
:1071700000D576E04B46524693401F004B46624690
:1071800093401E00AF4228D825D05346A41BBD41D2
:10719000002B00DA7BE00022002300920193012300
:1071A000524693400193012362469340009318E0B6
:1071B0008242D0D900220023009201930A9B002B27
:1071C00001D01C605D600098019902B01CBC904623
:1071D0009946A246F0BDA342D7D9002200230092CF
:1071E00001936346002BE9D0FB079846414672089D
:1071F0000A437B0866460EE0AB4201D1A2420CD89E
:10720000A41A9D41012024196D410021013E24183A
:107210004D41002E06D0AB42EED9013E24196D41FE
:10722000002EF8D100980199534600196941002BAE
:1072300023DB2B005246D3402A006446E2401C0068
:1072400053461500002B2DDB26005746BE40330069
:1072500026006746BE403200801A99410090019195
:10726000ACE7624620239B1A4A46DA406146130087
:1072700042468A4017001F4380E7624620239B1A3C
:107280002A0066469A402300F3401343D4E762463F
:10729000202300219B1A0022009101920122DA4052
:1072A000019280E72023624626009B1ADE402F00D1
:1072B000B0466646B74046463B003343C8E7C04643
:1072C00070B542004E024C0045026D0A120EC30F0B
:1072D000760A240EC90FFF2A0FD0FF2C11D00120EF
:1072E000A24200D070BDB542FCD18B420DD0002A25
:1072F000F8D12800451EA841F4E70120002DF1D166
:10730000EBE70120002EEDD1E9E70020EAE7C046D7
:1073100070B54A004E02450244006D0A240EC30FA8
:10732000760A120EC90FFF2C15D0FF2A0ED0002CA2
:1073300015D1002A01D1002E1CD0002D14D08B4273
:1073400027D00220013B1840013870BD002EEED03E
:1073500002204042F9E7002DFAD1FF2A0ED0002A80
:107360000ED1002EEDD00BE0012301399943080026
:107370000130EAE70020002DE7D0E2E7002EE7D158
:107380008B42DED1944205DD0221581E08400138AF
:10739000DBE70024A24204DCB542D2D80020B5428B
:1073A000D3D2581E012398430130CEE730B54200B6
:1073B00044024D02C30F4800640A120E6D0A000E0B
:1073C000C90FFF2A12D0FF280CD0002A12D10028A2
:1073D00019D1002D17D1002C2BD00220013B1840D1
:1073E000013826E0002DF0D0022022E0002CFBD155
:1073F000FF281FD000281FD1002D1DD10220013BE6
:107400001840013815E0002C0ED08B42E5D1002247
:10741000904204DCAC42E0D80020AC4209D2581EB5
:1074200001239843013004E0012301399943080006
:10743000013030BD002DD7D18B42CED18242E7DD65
:107440000221581E08400138F3E7C046F0B54E4609
:1074500057464546DE46E0B543025B0A450083B029
:107460000F1C99462D0EC60F002D57D0FF2D24D08E
:107470008020DB00C0041843002381469A469B46C7
:107480007F3D7C027A00FB0F640A120E984623D0DF
:10749000FF2A4BD0E30080240020E4047F3A1C4301
:1074A000AD186B1C47460193534677403A000F2BAB
:1074B00048D87D499B00CB589F46002B00D085E0E3
:1074C00008339A46063B9B467C027A00FB0FFF2559
:1074D000640A120E9846DBD1002C00D090E0524690
:1074E00001231A4392460120DBE74C465846170019
:1074F000022824D0032800D1CFE000220023012855
:107500004DD15802D205400AFF071043384303B05B
:107510003CBC90469946A246AB46F0BD002B5BD1E1
:1075200004239A46033B00259B46AAE7FF35002C1F
:1075300060D1524602231A4392460220B1E7FF224D
:107540000023DEE74B461B0C9C464B462604360CBC
:10755000180461463300220C6446000C43434E433A
:107560005043544380191A0C1218964203D98021B3
:1075700049028C4664441B041B0C1004C018830190
:107580005E1EB341800E1843130C1B199B0103436D
:107590001C00230179D5012362081C401443019A81
:1075A0007F32002A4DDD630704D00F232340042BD4
:1075B00000D00434230103D53C4B019A1C40803297
:1075C000FE2ABCDCA3015B0AD2B29AE70C239A46DE
:1075D000093BFF259B4654E7180001F0D3FD4A46BE
:1075E000431F76259A4000236D4291462D1A9A46F4
:1075F0009B4646E7524603231A439246032050E730
:10760000200001F0BFFD431F2D1A9C40763D002055
:1076100047E780230027DB03FF2272E7424666E745
:107620004C463200584662E780234A46DB031A4242
:1076300022D01C4220D123435B025B0A4746FF2233
:107640005FE701239A1A1B2A21DC23000199D3400A
:107650009E318C401A0023005C1EA34113435A073D
:1076600004D00F221A40042A00D004335A0111D446
:107670009B015B0A002244E780234A46DB03134355
:107680005B025B0A3700FF223BE7019587E7002298
:10769000002336E70122002333E78023DB03234363
:1076A0005B025B0AFF222CE720AD0000FFFFFFF723
:1076B000F8B54746CE464400C20F80B5470248029F
:1076C000400A8446664648007F0A240EF6002500DC
:1076D0009046FB00000EC90FB146FF2800D185E09F
:1076E00001267140261A914257D0002E43DD002812
:1076F00000D07FE04946002900D1AAE0013E002EDB
:1077000000D0F7E05B1A5A0100D48BE09B019C0982
:10771000200001F037FD05388440854200DDD3E0CC
:10772000451B230020200135EB40451BAC40621E69
:1077300094412343072400251C40012241460A406E
:10774000002C04D00F211940042900D00433590122
:1077500000D480E00135ECB2FF2D00D0A3E0FF247F
:1077600000235B02E405580AD207204310430CBCF7
:1077700090469946F8BD002E74D1601CC0B2012815
:1077800000DCA7E04A469C1A620100D5B6E0002C56
:10779000BED1002200240023E3E7002E00DC85E0B8
:1077A000002846D0FF2C49D080224846D2041043FE
:1077B000814601221B2E09DC20204C46801B844080
:1077C0004A462000F240441EA04102439B185A0141
:1077D00028D50135FF2D00D1A8E0012207249449C6
:1077E0001A405B080B4013431C40A6E7002E00D054
:1077F00078E775E7FF2C54D080224946D204114324
:10780000894601221B2E09DC20214846891B88401D
:107810004A460100F240481E81410A439B1A5A0120
:1078200000D573E7012241460A40590700D089E795
:1078300011E04846002858D1FF2C0CD1DB08002B62
:1078400000D18CE78020C00303435B025B0AFF2466
:1078500087E7FF2C25D0DB08FF2DF0D05B025B0A09
:10786000ECB27EE7002C4DD0FF2818D08024E40431
:10787000724223431B2A00DDC4E01C002025D440B3
:10788000AA1A93405A1E934123434A460500D31A2D
:10789000884638E7721CF8D0F243FF28EAD10A0084
:1078A0004B46FF25D7E79B015B0A5AE7002E41D1E3
:1078B000651CE9B2012945DDFF2D00D14FE7072402
:1078C0004B445B081C4038E707225A4B2D1A2340D3
:1078D000144032E7002C1DD1002B7AD14B46002BEF
:1078E00000D191E00A000025B5E7013E002E19D134
:1078F0004B446CE7FF2C84D1FF25ACE74A46884611
:10790000D41A05E7002BC5D10A00FF28C8D005000E
:107910004B46A0E7002B49D14B46002B77D00A00FD
:10792000FF2598E7FF2C00D043E787E70A00FF24F4
:10793000002316E7002C15D1002B57D1FF28E6D1E4
:107940004B467BE7002C20D1002B57D0494600291D
:1079500053D04B445A0168D50724364A1C400125B0
:107960001340EAE6FF28EBD08022D204764213438C
:107970001B2E53DC2025AD1B1A00AB40F2405C1ED1
:10798000A34113434B44050021E7002BD8D04946BF
:10799000002900D152E78021C9030F4200D14DE7F1
:1079A0006046084200D049E74B4647E74846FF2576
:1079B000002800D14FE78022D203174204D060464E
:1079C000104201D14B46884601224146FF250A401C
:1079D00041E7484600281FD01A1A500120D54A46D0
:1079E0000724D31A1C4088460025A6E6741CC9D07B
:1079F000F643FF28BCD14B4620E799464B4600256D
:107A0000DB082BE7012340E700220023A9E68023BF
:107A10000022DB03FF24A4E600251CE70123B1E7D5
:107A2000002AF1D013000025FCE60025FAE6C04646
:107A3000FFFFFF7DFFFFFFFB41024200C30F490A2A
:107A4000120E00207E2A0DD99D2A0CD88020000419
:107A50000143952A0ADC9620821AD1404842002B25
:107A600000D108007047034A9818FBE7963A914006
:107A7000F4E7C046FFFFFF7F70B500283DD0C31775
:107A8000C5185D40C40F280001F07CFB9E22121A2D
:107A9000962A07DCD2B2082833DD08388540680210
:107AA000400A23E0992A0BDD052329001B1AD9403F
:107AB00003001B339D402B005D1EAB4119430D009D
:107AC000052801DD431F9D402B000F490B406E0729
:107AD00009D00F263540042D05D004335D0102D5B1
:107AE0009F220B40121A9B01580AD2B24002D205C3
:107AF000400AE4071043204370BD00240022002008
:107B0000F4E76802400AF1E7FFFFFFFBF0B55746D4
:107B1000DE464E464546E0B5834607000E03480064
:107B200085B092461C00360B400DCD0F002800D1C9
:107B30009DE0954B984239D08023F6001B041E43EC
:107B4000924A7B0F33439946944603006344009363
:107B500000230026FF00029323031B0B98466300BB
:107B6000E40F52465B0D019400D1B3E086498B428D
:107B700000D19EE04246D100802212040A435146C1
:107B8000490F11438B46814952468C460099634404
:107B9000CB1A0021D20000932B0063409A460F2E8F
:107BA00000D905E17A4BB6009B599F465B463343AB
:107BB000994600D0B8E002230826002700900293DF
:107BC000CAE7CB463A0002990195019B9A460229E1
:107BD00027D0032900D180E2012944D06D49009BC0
:107BE0008C4663441C00002C38DD530700D013E2A0
:107BF000D2085B46DB0109D55946674B19408B46D5
:107C00008021C9008C46009B63441C00634B9C424E
:107C100007DC5B4664055F075B0217431B0B620DC5
:107C200002E000230027584A00211B031C0B0B0D08
:107C30001B05234314055A4A380013401C4353467E
:107C40006400DB0764081C43210005B03CBC90467F
:107C50009946A246AB46F0BD0122524201231B1BAE
:107C6000382B00DCADE1002200230027DCE75B4677
:107C7000334399465ED0002E00D18AE1300001F0F6
:107C800081FA03000B3B1C2B00DD7BE11D22D31A84
:107C90005A460100DA4008398E4013005F463343EC
:107CA00099468F403F4B00261B1A009300230293F6
:107CB00052E7414653460B433B499B468C46009B4B
:107CC000634400935B46002B3BD1022300221E43FA
:107CD000022161E7434613439B4637D04346002BBE
:107CE00000D162E1404601F04DFA03000B3B1C2B32
:107CF00000DD53E102004146083A914088461D21CB
:107D0000CB1A5146D9400B0041460B439B46534684
:107D100093401A00009B25499C46604403008C4612
:107D200063440093002137E70323B14600900C26FB
:107D3000029311E7002300930133042600270293E6
:107D40000AE70323C3461E43032125E701331E43ED
:107D50000022012120E700239A46802300271B03ED
:107D6000094A61E7802349461B03194200D1E2E03A
:107D70005946194200D0DEE00B431B0317001B0BD2
:107D8000A246014A50E7C046FF07000001FCFFFF82
:107D900060AD0000FF030000FFFFFFFEFE070000D4
:107DA000FFFF0F800DFCFFFF01F8FFFFF303000052
:107DB000D94500D9CBE000D1C6E03C0048460027B9
:107DC000009B013B00935B46160E1B021E431302F1
:107DD000984633041B0C9946310C0191FEF7EAFFDB
:107DE0004A4642430B04210C050019438A4207D935
:107DF0008919013D8E4203D88A4201D9851E89190D
:107E0000881A0199FEF7D6FF09048C464A462104D8
:107E100064464243090C030021438A4204D989196C
:107E2000013B8E4200D8F1E02D041D43AB46434692
:107E3000891A4246280C12041D0C5B46140C2200C1
:107E40001B041B0C5A4303946B4344430295684341
:107E50001B19150CEB189C4203D980246402A4461C
:107E600060441C0C15041B042D0C20185D19814264
:107E700077D373D00C1AA24A7D1BAF42BF41944600
:107E8000009B7F426344E01B1C00864200D1DBE084
:107E90000199FEF78FFF4A4642430B04290C070065
:107EA00019438A4207D98919013F8E4203D88A4271
:107EB00001D9871E8919881A0199FEF77BFF0904E9
:107EC0004A46894629044D464243090C030029438A
:107ED0008A4207D98919013B8E4203D88A4201D9C7
:107EE000831E89193F04891A3A00039F1A433800F8
:107EF00013041B0C584381460298150C6F434343EF
:107F000045434846000C8446DB1963449F4203D92D
:107F1000802040028446654448461F0C00041B0430
:107F2000000C7D191818A94200D284E000D17FE02E
:107F300001231A4357E680234A461B0313431B03BE
:107F40001B0BAA466F4A6FE6BA4200D935E74B468B
:107F5000DC0758087B081C43FF0734E70024AF42C6
:107F600089D247444745A4415B466442A41964183A
:107F7000013BA6421ED2A0426DD800D1B6E0241A21
:107F80009B4678E703005A46283B9A4000279146D3
:107F900088E6584601F0F6F8203072E603005246B3
:107FA000283B9A4093460022B4E6504601F0EAF896
:107FB00020309AE6A642E2D1B845DCD9341A9B4675
:107FC00059E71F2B65DC504C0099A4465C46614480
:107FD00008008C4011008240D940501E82410C4361
:107FE00014435A46DA401300620709D00F22224098
:107FF000042A05D02200141D9442894149425B188D
:108000001A0262D50122002300270DE68A4200D819
:108010000AE7831E891907E70F231340042B00D1B9
:10802000E6E5171D9742924153429B44FA08E0E56A
:10803000002800D1D7E57118531EB14227D3A942B9
:1080400015D358D01A0073E7002B00DC04E6012397
:1080500000229B44CDE502234744474589415B42CA
:108060009C46494289190C19E344241A03E7434604
:108070005F0047459B41B8465B429E19023A891909
:10808000A94200D054E7404500D051E7ABE51A00C3
:10809000F6E71F215F4649420C1BE740202B07D023
:1080A0001A49009B8C46634418005B4683401A4380
:1080B000501E82413A4307270023174009D00F2161
:1080C000002311401400042995D122005F075B02B0
:1080D0001B0BD20817430022A6E5802359461B0339
:1080E0000B431B0317001B0B064A9DE5BD42B2D88C
:1080F0009B460024BFE68045B9D31A00C3E7C046BB
:10810000FF030000FF0700001E0400003E04000003
:10811000F0B54F464646D6468446C0B58046194E11
:1081200018030F034D00000B5C0082463F0B6D0DE2
:10813000C90F9146640DDB0F0120B5420AD0B4424D
:1081400003D0A54201D157450CD01CBC904699469E
:10815000A246F0BD66463E43F7D1AC42F5D1544647
:108160001443F2D10120C845EFD1994207D0002D28
:10817000EBD163461F433800471EB841E5E70020B6
:10818000E3E7C046FF070000F0B54F464646D64637
:108190004D00C0B50E03C90F8A462C491F035C0071
:1081A0008046360B6D0D91463F0B640DDB0F8D4203
:1081B0001ED08C4216D0002D1ED130438446002C98
:1081C00001D13A4323D06246002A1AD09A4529D0D9
:1081D000514602200139084001381CBC904699469E
:1081E000A246F0BD39001143E5D002204042F4E739
:1081F0003043FAD1AC420FD0002C0FD13A43E7D034
:108200000CE00122013B934318000130E5E763468F
:108210000020002BE1D0DBE73A43E6D19A45D7D1E5
:10822000A542D5DCA54205DBBE42D1D808D000204E
:10823000BE42D2D250460123013898430130CCE7E8
:10824000C845C5D80020C845F4D3C6E7FF070000DD
:10825000F0B54F464646D6464D00C0B50E03C90F91
:108260008A462E491F035C008046360B6D0D9146F1
:108270003F0B640DDB0F8D4218D08C4211D0002DC6
:1082800018D130438446002C1ED13A431CD163469A
:108290000020002B30D0514602200139084001381F
:1082A0002AE039001143EAD0022025E03043FBD117
:1082B000AC4226D0002C26D13A4324D1514602208C
:1082C00001390840013817E06246002A0FD09A456C
:1082D000E1D1A54205DBBE42DDD819D00020BE4267
:1082E0000AD25046012301389843013004E00122AC
:1082F000013B9343180001301CBC90469946A246AE
:10830000F0BD3A43D0D19A45C5D1A542C3DCE0E7E0
:10831000C845C0D80020C845E3D3EDE7FF070000FB
:10832000F0B55746DE464E464546E0B58346060064
:108330000F03480087B092461D003F0B400DCC0F45
:10834000002800D16FE0DE4B984238D08023FF0038
:108350001B041F43730F3B430193DA4B00279946DD
:1083600000239B46F60081442B0369001B0B5246F9
:108370009846490DED0F002900D185E0D04B994278
:1083800000D173E04346DA0080231B0413435246B6
:10839000CC48520F84461343524600206144D20019
:1083A00089442100694000918C46012149448A4654
:1083B0000F2F00D990E0C449BF00CF59BF465B469C
:1083C0003B43019300D06AE102230827002681463F
:1083D0009B46C9E732005846019B6146009102283E
:1083E00000D175E0032800D1FEE1012800D02CE186
:1083F00000230027002600253F032A0D3F0BB3482A
:1084000012053A4302401B051343009A5B00D10753
:108410005B080B433000190007B03CBC90469946FE
:10842000A246AB46F0BD5B463B43019300D12FE132
:10843000002F00D1A5E1380000F0A4FE03000B3BA3
:108440001C2B00DD96E11D22D31A5A460100DA40AA
:108450005E4608398F4013008E403B4301939C4B8E
:1084600000271B1A994600239B467DE74146534649
:108470000B4393498C46E144002B00D01AE10222C1
:108480000220174300228CE7134300D10DE143463D
:10849000002B00D181E1404600F074FE02000B3A4F
:1084A0001C2A00DD72E10100434608398B409846E2
:1084B0001D239A1A5346D3401A004346134352468B
:1084C0008A404946081A824989468144002068E763
:1084D0007B4B002700268EE7140C1204120C1100AF
:1084E000370C3604350C794328008C462E00604347
:1084F0006044834656432100300C804658467943F9
:1085000040440291844506D98846802149028C4620
:10851000E044414602913604010C360C00048B46BF
:1085200081191E0C1B041B0C0391190079438C4606
:10853000280075436544A8465843050C45447743D5
:10854000A94203D9802149028C466744290C8C46F4
:1085500039000004000C2D042D186144AB44059132
:108560005946049101990F043F0C080C39005143FE
:108570004243904602008C46090C8B4662437C4382
:1085800044445C44A04503D98021490288464244C2
:10859000210C884661460904090C8C463900594370
:1085A000434370437E430F0CF6182404BE19644401
:1085B00042448C46B34203D980235B029846404430
:1085C000029B61469846049B370443449B46AB4557
:1085D000AD416B420D0405992D0C8C467F19674403
:1085E000FD18A8465D462D19A542A4419346644254
:1085F000A446C344DC448F42BF4198459B41934508
:108600009241A445A4415B427F421F43360C524233
:108610006442BF192243BF18624638184302D20D84
:10862000039913436A020A43501E82416146ED0DCD
:108630002A434E023243D90100D4B3E00126500848
:1086400032400243DE0732435B08224C5444002C84
:1086500062DD510709D00F201040042805D0101DFD
:108660009042924152429B180200D90104D58024C5
:108670001948E400034054441848844200DD27E7C9
:108680005E075B02D2081F0B630516435B0DB2E663
:10869000002399460133042700269B4664E6032302
:1086A000019781460C279B465EE601220120174375
:1086B000002276E6032303201F43434671E6C046AB
:1086C000FF07000001FCFFFFA0AD0000FFFF0F80CF
:1086D0000DFCFFFFFF030000FFFFFFFEFE07000091
:1086E0000023802700933F030026434B83E6019B32
:1086F0003200A446584670E6AC466EE680270199E3
:108700003F0339422DD03B422BD11F433F033F0B48
:1087100000951600384B6EE601252D1B382D00DD27
:1087200066E61F2D40DC35481C0050441600824090
:108730008440EE40501E824134431443EB406207B4
:1087400009D00F222240042A05D02200141D944291
:10875000804140421B181A023ED501230027002603
:1087600049E68027019B3F031F433F033F0B0094D3
:10877000214B40E603005A46283B9A4000260192CE
:108780006DE6584600F0FEFC203057E603005246E6
:10879000283B9A401300002293E6504600F0F2FC7A
:1087A00020307BE6CA4650E71F201E004042041BD3
:1087B000E640202D03D0124C5444A3401A43501ECF
:1087C0008241324307260027164009D00F2000239C
:1087D000104014000428B9D122005E075B021F0B71
:1087E000D2081643002306E680273F031F433F03BA
:1087F0003F0B1600004BFEE5FF0700001E040000C3
:108800003E040000F8B557464E464546DE460C008D
:108810000903E0B5490A460F5F0031431E03DB0F31
:10882000760A9B46530F3343C84E6500C000E40FE1
:10883000D2006D0DA24681467F0D9C469046B74200
:1088400000D1B9E05B46012673409B46EE1BA34571
:1088500000D183E0002E63DD002F00D0B1E063463D
:10886000134300D123E1731E002B00D0BAE1861A16
:108870006346B04280410125C91A4042091A0B02E1
:1088800000D447E149024B0A98464346002B00D1E9
:1088900089E1404600F076FC0300083B1F2B00DD19
:1088A0007CE120223000D21A4146D040994002009B
:1088B0009E400A439D4200DD6AE15D1B6B1C1F2B3D
:1088C00000DD94E1202110003500C91A8E40DA4005
:1088D0008840DD40711E8E4111000722284300258B
:1088E00006433240002A09D00F233340042B05D021
:1088F000331DB342B641764289191E000B0200D4E3
:108900003DE26A1C914B55056D0D9A4200D119E16B
:108910008F4AF6080A40570752023743120B9BE072
:10892000002E00D0C5E06E1C7605760D012E00DC11
:1089300048E16746861ACB1BB042BF417F42B8462A
:108940001F004346FF1A3B00B8461B0200D55FE1FB
:1089500037439AD100220024002579E0002E00DC64
:10896000FAE0002F00D18DE0784B9D4267D0802344
:1089700067461B041F43BC46382E00DC52E16346A9
:1089800013435A1E93411E188642804140420918E3
:108990000B0200D4BEE06D4B01359D4200D1D2E008
:1089A0006B4A73080A4001210E401E435108D30749
:1089B00007221E43324095E71E00164300D045E7CC
:1089C00040E7624B9D423AD0802367461B041F4319
:1089D000BC46382E00DDEBE01F2E00DC3AE1330010
:1089E0006746203BDF403B00202E05D04027BF1BC1
:1089F0006646BE40324390464646721E9641334319
:108A0000DAE0002B00D114E26346134300D168E1A1
:108A100080234E07C008C9081B030643194208D02B
:108A20006046C008184204D163460100D2085E07C0
:108A30001643F3009946C900720F444D11434B464B
:108A4000DE08424B4F073743CA089D4200D16EE013
:108A500012036D05120B6D0D00211203130B0A0D8D
:108A600012051A433B4B2D0513402B435B00E407D3
:108A70005B082343380019003CBC90469946A24647
:108A8000AB46F8BD6346134311D0731E002B00D0D4
:108A900007E1861886428041614440420918012559
:108AA0000B0237D502257BE73E0061469146350033
:108AB000C5E75C46002D00D0E1E00B000343F3D096
:108AC000731C00D1ACE1214B9F4200D13AE1F3434A
:108AD000382B00DD6FE11F2B00DD8CE120250E001F
:108AE000ED1AAE40B0460600AA46DE404546354384
:108AF0002E005546D940A8406346451EA8415B1A42
:108B00009C463043161AB242924163465242991A29
:108B10003D00B4E607223240002A00D0E4E60B4BC9
:108B2000F6084F073743CA089D4200D090E73B0044
:108B3000134300D1A6E180231B031A431203120B37
:108B4000024D89E715000022002785E7FF07000096
:108B5000FFFF7FFFFFFF0F80002E00D0C7E06B1CE0
:108B60005E05760D012E00DCF0E0C84DAB4200D171
:108B7000B9E085180A00854289416244494251188A
:108B80000722CE076D082E43490832401D00A9E692
:108B9000BF49ED1A114007223240A3E632002838BF
:108BA0008240002686E6300000F0ECFA203073E6C2
:108BB000634613435A1E9341C61AB0428041404255
:108BC000091A5CE60E00674606431743002D5ED186
:108BD000002E00D0F3E0002F00D11EE15C4661467C
:108BE00091462CE7A94FBE427BD01E00F1E6100053
:108BF0001F3DE840202B03D04021CB1A9A4016435A
:108C0000731E9E410722064332400021002583E760
:108C1000161A6346B2428041591A40420B1A9846CE
:108C20005C4632E61F2E00DDABE02027BB1B9A46D8
:108C300063465746BB40994613004F46F3401F43D7
:108C40003B005746BA40571EBA4113436246F240B2
:108C5000891898E62027BB1B9A4663465746BB40B7
:108C6000994613004F46F3401F433B005746BA4016
:108C7000571EBA4113436246F240891A9CE7834B60
:108C80009F425FD080252D047342294320E7002EA8
:108C90000CD1002F00D1D0E05C46614691467B4D5F
:108CA000CDE67A4FBE421CD01E0065E6002F18D0DC
:108CB000C0084E0706438020C9080003014208D0BF
:108CC0006346DC08044204D12100DA46D2085E077C
:108CD0001643F300994601245346C900720F11430D
:108CE0001C406A4DABE61D0000220027B4E6002DB3
:108CF00059D10B00034300D1D6E6731C00D1B2E07A
:108D0000624B9F421ED0F343382B6FDC1F2B00DDDC
:108D100097E020250E00ED1AAE40B0460600AA46A8
:108D2000DE40454635432E005546A840D940451EF5
:108D3000A8418C440643B618964292415142614480
:108D40003D0025E63D006146914678E60B00034371
:108D5000002D00D055E6002BF5D06346134300D11B
:108D60006DE686188642804161444042091800221F
:108D70000B0200D4D0E6464B01351940B2E5B146AE
:108D80005DE633006746203BDF403B00202E05D0E8
:108D90004027BF1B6646BE40324390464646721E81
:108DA00096413343EFE5394B9F42CBD080252D04CC
:108DB00073422943A8E70843411E8841A2E6002FD9
:108DC00000D13CE66346861ACF1AB0429B415B4213
:108DD000FB1A98461B024ED5161A6346B2429241C0
:108DE000591A5242891A5C4600227BE501430E0063
:108DF000711E8E419FE71D000E00203DEE40B046E3
:108E0000202B04D04025EB1A994008438146484660
:108E10004346411E8841184374E60022002417E6A9
:108E2000161A6346B2429241591A5242891A3D00BB
:108E300025E561469146154D01E680220024120386
:108E400079E61D000E00203DEE40B046202B04D0F8
:108E50004025EB1A9940084381464E464346711E11
:108E60008E411E4367E7861896429B4161445B42F0
:108E7000C9183D008CE547463743CED0072241460E
:108E8000324049E600273A00E6E5C046FF07000009
:108E9000FFFF7FFF30B5144D0A034B00120B5B0D33
:108EA000C90F0024AB4211DD104CA34210DC80241A
:108EB000640322430E4CE41A1F2C0CDD0D48C31A28
:108EC000DA4013005C42002900D11C00200030BDB4
:108ED000094BCC18FAE7094DE040AC4663449A4090
:108EE00013000343EEE7C046FE0300001D0400002C
:108EF0003304000013040000FFFFFF7FEDFBFFFFC2
:108F000070B500282DD0C317C5185D40C40F2800C8
:108F100000F038F9154B1B1A5B055B0D0A2815DDAF
:108F20000B38854000222D032D0B002110002D034E
:108F30000A0D2D0B12052A430D4D1B052A40134324
:108F40005B00E4075B082343190070BD02002900A1
:108F5000153291400A000B21081AC5402D032D0B34
:108F6000E3E70024002300250022DEE71E040000C2
:108F7000FFFF0F8010B5041E25D000F003F9144B3D
:108F80001B1A5B055B0D0A2812DD0B38844000229A
:108F90002403240B0021100024030A0D240B1205C6
:108FA00022430C4C1B05224013435B00590810BDA3
:108FB00002002100153291400A000B21081AC4401A
:108FC0002403240BE6E7002300240022E2E7C04646
:108FD0001E040000FFFF0F804100090E4B1C70B5FE
:108FE000DBB24602750AC40F012B14DDE0239B009F
:108FF0006D07360BCB1800210A0D280012051C4DF9
:1090000032435B052A405B0813435B00E4075B08BF
:109010002343190070BD002914D1002D1ED0280053
:1090200000F0B0F80A281CDC0B232A001B1ADA40D7
:10903000030015339D400F4B12031B1A5B05160BE3
:109040005B0DD8E7002D06D0320B802636036D0766
:109050001643094BCFE7084B0026CCE70023002638
:10906000C9E703002A000B3B9A400025E3E7C0460E
:10907000FFFF0F8089030000FF070000F0B54C00E0
:10908000640D0B03621C5B0A460F5205C90F1E4399
:10909000C500520D012A29DD374BE718FE2F1CDCD5
:1090A000002F3BDD8001431E98410722F3006D0F26
:1090B00003432B431A40002A04D00F221A40042AEB
:1090C00000D004338022D2041A4024D00137FAB2EF
:1090D000FF2F02D09B01580A01E0FF22002040022E
:1090E000D205400AC90710430843F0BD3543002CA0
:1090F00004D1002D0AD100220020F0E7002DECD091
:109100008020C0033043FF22E9E7002400235B02F4
:10911000580AE2B2E3E7DB083C00F8E73B0017330C
:10912000F3DB80231B0433431E26F61B1F2E14DDA6
:1091300002225242D71B1A00FA401700202E04D0F8
:109140000E4A94466444A3401D432B005D1EAB4170
:1091500007223B431A400027ADE7094A2800A2181E
:10916000954093406C1EA541F04007222B430343DA
:109170001A4000279FE7C04680FCFFFFA2FCFFFFCC
:1091800082FCFFFF1C2101231B04984201D3000C29
:1091900010391B0A984201D3000A08391B0998426A
:1091A00001D30009043902A2105C40187047C04680
:1091B00004030202010101010000000000000000A0
:1091C00010B5002903D1FFF7DDFF203002E0081CB5
:1091D000FFF7D8FF10BDC0460023C25C0133002A50
:1091E000FBD1581E704700001F231840064B186023
:1091F000054B1B681B06FBD5034B186980B21A6828
:1092000080218A431A60704700B0034010B5C0B295
:10921000FFF7EAFF10BD0000224B1A6A40218A4383
:109220001A625A6A35398A435A625A6A04390A43B9
:109230005A625A6A79310A435A621A4B1B681B06F2
:10924000FBD5184B5B6A5B062AD4164AD36CDBB29B
:10925000916C5B18DBB2516C5B18DBB2116C5B1864
:10926000DBB2D16B5B18DBB2916B5B18DBB25B08D6
:10927000D362D36EDBB2916E5B18DBB2516E5B18BA
:10928000DBB2116E5B18DBB2D16D5B18DBB2916D96
:109290005B18DBB25B081363536A80218B43536214
:1092A000C046704700B00340F8B51D00234E244C63
:1092B000375980231B053B433351083AD3B2052B62
:1092C00007D89A001F4B9B589F46002204E00822B3
:1092D00002E00C2200E0042251231A431A4CA2603F
:1092E000E3680F229343E36001281BD0164AD3683A
:1092F00010208343D360144800230362426A03337F
:109300002B4013430C221343436201290FD00E4A12
:10931000136820218B4313600B4A136840218B4351
:109320001360F8BDE3680F300343E360E3E70368CD
:109330001F310B430360FFF76FFFEDE70070044040
:109340003C100000E0AD000000B0034010B5000A82
:1093500003231022FFF7A8FF10BD000010B5FFF790
:10936000CFFD0A4A0A4BFEF7DBFF0022094BFFF74D
:1093700049FA094A094BFEF7C9FB02000B0000201D
:109380000749FFF73FFAFFF779FE10BD9A999999BF
:109390009999A93F00788640713D0AD7A370FB3F99
:1093A000000039408000034BC258136880210B43F2
:1093B000136070470004002010B5002806D0431E3B
:1093C000DBB2012B07D8FFF7EDFF04E0024A136878
:1093D00080210B43136010BD00000440264B274A38
:1093E000C021890299502649585880229200024390
:1093F0005A50244B9B781B0704D5224A93780821A6
:109400000B4393701C4B1D4A8021490299501E4A00
:1094100099581E480140995019681D48014019602B
:1094200099581C48084080214904014399501A4B1F
:1094300006221A705A7840210A405A70D97849B2E7
:109440001F2211407F3A0A43D2B2DA700022134938
:109450000A701A715A71104B9B79DB06FBD50E4BC3
:109460009A790C231A42FAD10349054A8858F823FD
:109470009B0103438B507047007004404410000070
:109480003810000000D0074004100000FFFFFCFF70
:10949000FFFFF3FFFFFFFFFC0040064000500640C7
:1094A00070B586B072B600F0DFF9584801F014FCD0
:1094B000032000F0BBF901220021554800F07AF9A1
:1094C00000F0D2F9534801F007FC00F071FF524858
:1094D00001F002FCE1214902002000F0CBFB002159
:1094E0000220FFF733FF00211A20FFF72FFF00F0C3
:1094F000BBF9002000F0DAFC62B6484801F0ECFB52
:109500009F23002200925B00EE320221022000F035
:10951000BFFE012300934F33EC222821042000F0EA
:10952000B7FE3F4CF8252D023E4B009323002A0046
:109530001421482000F008FE3B4B009323002A0032
:109540003421442000F000FE00F08EF9374B0093E8
:10955000230000225821082000F0F6FD00F084F9D5
:10956000002400F081F90134314B9C42F9D900F01C
:109570007BF91A20FFF74AFEFFF7F0FE051C284E84
:109580002C4B0093330000225821542000F0DCFDC6
:1095900005AC22000221281C00F096FAFC22009063
:1095A0003300D2005821542000F0CEFD00F05CF9C9
:1095B000281CFFF711FD00221F4B02900391FEF7BC
:1095C000AFFEFFF767FC0A21FDF7DEFC8B00C91830
:1095D0004B00DEB20022194B02980399FEF7A0FE61
:1095E000FFF758FC0A21FDF7CFFCC9B27118CEB2C3
:1095F000281CFEF721FA207066700023A37021005A
:10960000002000F009FC0024ABE7C046F8AD0000E4
:10961000130400000CAE00001CAE000024AE0000DD
:109620003084000040AE000050AE000060AE00008C
:10963000FFFF1F006CAE00000000244000005940F6
:1096400010B501F05BFB10BD00238B4206D28202F5
:10965000D25CFF2A05D101339BB2F6E70120C0B2EC
:1096600070470020FBE700000F4B30221A70EFF329
:109670001083002B12D172B62F3A0B4B8021197038
:10968000094B1B785BB2002BFADA012A08D0064B93
:109690001A7831231A4205D1002070470022ECE7E6
:1096A00062B6F4E70120F8E70000024010B584023A
:1096B000164B0922DA718204120E9A718006000E8E
:1096C0005871E2B21A71FFF7CFFF01281BD0104B7F
:1096D0009C4201D9002010BD0C4B0622DA710022F9
:1096E0009A7104325A7108321A71F332DA729A722C
:1096F0005A72013A1A72FFF7B7FF012801D0002011
:10970000E9E70130E7E70120E5E7C0460000024055
:10971000FF030000F8B50F001400124B0622DA71A7
:1097200005000026B74218D92A02120E0D4B9A7175
:109730002A04120E5A71EAB21A71E278DA72A27829
:109740009A7262785A7222781A72FFF78DFF012896
:1097500005D0043604350434E4E70020F8BD0220C7
:10976000FCE7C04600000240030A0B70107070470F
:1097700030B583B00D006B46DC1D9A1D2100FFF74C
:10978000F3FF23789B000A4A9B58012D08D01A68E2
:1097900069468879012181408A431A6003B030BD4F
:1097A0001A6869468879012181400A431A60F5E701
:1097B00074AE0000F0B585B004000F00019202AB5A
:1097C0009E1DDD1D32002900FFF7CEFF2A78920092
:1097D000134BD3581349505832789200D158124D38
:1097E0002940D15032789200D65880214900314327
:1097F000D150012F08D0436902AA917901228A40F1
:109800009343436105B0F0BD436902AA91790122F7
:109810008A401343436101992000FFF7A9FFF1E754
:1098200088AE000074AE0000FFF8FFFF012809D0E9
:1098300002280FD00B49882252018B580C20034379
:109840008B5006E00749882252018B5804200343BD
:109850008B5070470349882252018B5808200343DC
:109860008B50F6E700700440034A044B5521D15059
:109870005531D1507047C0460070044004110000BB
:10988000F8B50D0014001F0006AB1E78012802D8A1
:10989000002800D076E07849784A88588023DB0396
:1098A00003438B50764B802292001A615A619A6171
:1098B000DA61FFF7D9FF734B0022DA70DA784021C2
:1098C0000A43DA70012D2DD06E4AD37880214942A7
:1098D0000B43DBB2D370002F2AD16A4AD378082118
:1098E0008B43D370002E29D1664AD37804218B4351
:1098F000D370FFF7B9FF634BDA7802210A43DA70BD
:1099000000229A70012D1FD05E4B00225A70210058
:109910005D48FDF753FAC4B2FFF7A6FF082C19D92A
:10992000002523E01A00DB7810210B43D370D2E727
:10993000544AD37808210B43D370D3E7514AD378E4
:1099400004210B43D370D4E71A009B7810210B43FA
:109950009370D9E7013CE3B21B01DBB2494A537073
:109960000FE0FFF781FF0135EDB26408112CF8D844
:10997000013CE4B22401E4B2424B5C705A781543D6
:109980005D70F8BDFFF770FF3B493C4A8858802363
:109990001B0403438B503D4B802292001A615A6195
:1099A0009A61DA61FFF760FF394B0022DA70DA78EA
:1099B00040210A43DA70012D2DD0354AD378802119
:1099C00049420B43DBB2D370002F2AD1304AD378FF
:1099D00008218B43D370002E29D12D4AD37804213E
:1099E0008B43D370FFF740FF294BDA7802210A43FB
:1099F000DA7000229A70012D1FD0254B00225A7078
:109A000021002148FDF7DAF9C4B2FFF72DFF082C39
:109A100019D9002523E01A00DB7810210B43D370FD
:109A2000D2E71B4AD37808210B43D370D3E7184AF7
:109A3000D37804210B43D370D4E71A009B7810210C
:109A40000B439370D9E7013CE3B21B01DBB20D4A33
:109A5000537096E7FFF708FF0135EDB26408112C4B
:109A6000F8D8013CE3B21B01DBB2064A53705378CD
:109A70001D43557085E7C046007004403410000057
:109A800000B0044000600740C05D000000C004401A
:109A9000007007400A4B9C466044000303789B0615
:109AA000FCD581710023074A934204D802789206BC
:109AB00003D40133F7E7002000E001207047C046DF
:109AC00076000400EFFF0000F0B5CE46474680B5B3
:109AD00085B0041C894603920021FDF7ABFA0028EB
:109AE0000ED100239846201CFDF7A6FF0700FDF7C6
:109AF000C3FF011C201CFDF7DBFD041C039D08E0D7
:109B0000211C0020FDF7D4FD041C01239846EAE740
:109B100035000A213800FDF737FA6E1C3031297004
:109B20000A213800FDF74AF9071EF1D14346012BFF
:109B300002D0711E039A11E0AE1C2C336B70F8E753
:109B4000137808781B18DBB2137008781B1ADBB285
:109B50000B701078C31A1370013201398A42EFD3A7
:109B6000751C2E23337000E035001849201CFDF7CA
:109B70006DFC041CFDF760FF6E1C030030332B707E
:109B800001374F451AD0FDF777FF011C201CFDF768
:109B90008FFD041CFFF720FA0D4A0E4B0090019137
:109BA000FDF722FA0028DFD0094A0B4B00980199F3
:109BB000FDF706FA002801D13500D6E700236B70C7
:109BC000039805B00CBC90469946F0BD00002041BA
:109BD0008DEDB5A0F7C6B0BEF7C6B03E80B51D4F3F
:109BE000BD4418213F20FFF72FFD00282BD18022F4
:109BF000D021D200C90102A8FFF722FD78231B68FB
:109C0000209A9A4210D01A20FFF750FD08231B68B3
:109C1000049378231B68019320938021D02002AA0B
:109C2000C900C001FFF776FD0B4BD022D2019A602C
:109C30000A4BE02292011A60094801F04DF8812395
:109C4000DB009D4480BDFC20064A18210002FFF77E
:109C500061FDCCE7F8FBFFFF00ED00E030040020E1
:109C6000B8AE00009CAE0000022801D80120704769
:109C70000020FCE770B504000D00FFF7F5FF002899
:109C80002BD0002C2AD0012C00D16DE0022C00D169
:109C900077E0013CA400414BE458E3780C22934365
:109CA000E3703F4B186840082901FCF7FDFF23785B
:109CB0001F22934302121F210A4013432370C0B294
:109CC00060700023A370A3716371E3787F22134057
:109CD000E370E3780C221343E37070BD314B324ADA
:109CE00098588021C9040143995099582F48014040
:109CF00099502F49086D8022D20010430865486DA5
:109D0000104348652B49585802435A502A4CE3786F
:109D10000C229343E3702901214B1868FCF7C4FF20
:109D200023781F22934302121F210A4013432370FA
:109D3000C0B260700F23A3720023A370A3712372BB
:109D4000637223791F2213432371637940225242A5
:109D50001343DBB26371E378BF321340E370E378FF
:109D60000C221343E370B8E7114BC02292001A6033
:109D70005A600C490F4A885880231B0103438B50BB
:109D800087E70B4BC02292001A645A640549094ABE
:109D9000885880235B0103438B507AE7E4AE0000D0
:109DA0000C0400200070044004100000FFFFFEFFC0
:109DB00000D004403410000000A0064070B505003B
:109DC0000C00431E9B00114A9E58FFF74DFF0028D0
:109DD00016D0002304E0327952B2002A11DB01339D
:109DE0000B4A934208D8002DF5D10A4A127952B293
:109DF000002AF4DA074AD471054A934203D80120B5
:109E000070BDF471F8E70020FAE7C046E4AE000048
:109E1000BAFB000000A0064070B504000E00FFF77A
:109E200023FF00280CD00025715D002907D02000F9
:109E3000FFF7C4FF002803D00135ADB2F4E70120DD
:109E400070BD000070B504000E00431E9B00144A54
:109E50009D58FFF709FF002801D0002306E00023EA
:109E6000337070BD2A79920615D401330D4A93429E
:109E70000AD8002CF6D10C4A12799206F5D50A4A76
:109E8000D079C0B201223270064A9342E9D9002348
:109E90003370FF20E5E7E879C0B201223270F3E7C2
:109EA000E4AE0000BAFB000000A0064070B504005C
:109EB000431E9B000D4A9D58FFF7D6FE00280ED08A
:109EC000002C0DD10A4AD37820210B43D370094BC3
:109ED0001B5D1F221A4001239340074A136070BD87
:109EE000EB7820221343EB70F1E7C046E4AE0000AC
:109EF00000A006401004002000E100E070B505005D
:109F0000FFF7B2FC01210948FFF732FCC024A4008E
:109F100000212000FFF72CFC29000020FFF7BAFDEC
:109F200001212000FFF724FC70BDC04601030000A2
:109F300070B50400FFF798FC01210B48FFF718FCEF
:109F4000C025AD0000212800FFF712FC210A0020E7
:109F5000FFF7A0FDE1B20020FFF79CFD01212800E2
:109F6000FFF706FC70BDC0460103000070B5050098
:109F7000FFF77AFC00210948FFF7FAFBC024A40090
:109F800000212000FFF7F4FB29000020FFF782FDED
:109F900001212000FFF7ECFB70BDC046010300006B
:109FA00010B50C00FFF7E2FF2000FFF7C1FF10BD66
:109FB000F8B507000D0016001C002A20FFF7D6FF99
:109FC000380AFFF79BFFF8B2FFF798FF300AFFF758
:109FD00095FFF0B2FFF792FF2B20FFF7C7FF280A8B
:109FE000FFF78CFFE8B2FFF789FF200AFFF786FF33
:109FF000E0B2FFF783FF2C20FFF7B8FFF8BD70B584
:10A0000005004023FF33EF2200210020FFF7D0FF9F
:10A0100000260AE02800FFF78BFF0134A4B240239A
:10A02000FF339C42F6D90136B6B2EF2E01D8002498
:10A03000F5E770BD10B514000B000200FFF7B8FF84
:10A040002000FFF775FF10BDF0B5DE4657464E46BF
:10A050004546E0B585B00EAC248803940190121AF1
:10A06000924602915B1A9B46002A0DDD0123984619
:10A070005B46002B12DD01239946DA4518DD554673
:10A0800000270026002417E0002A05D053429A46F4
:10A0900001235B429846EBE79046E9E7002B05D0A9
:10A0A0005B429B4601235B429946E6E7D946E4E7DB
:10A0B0005D46E5E70134A4B26B1C9C4214DC6B46A0
:10A0C00019899888039AFFF7B5FF56445F44B54253
:10A0D00003DA761B019B43440193BD42EADA7F1BFE
:10A0E000029B4B440293E5E705B03CBC9046994681
:10A0F000A246AB46F0BDF0B583B016000193089FB1
:10A100000B000F339BB202000F3292B2FFF750FFE9
:10A11000002512E00198FFF70BFF0134E4B2072C91
:10A1200008D80023FB562341DB07F3D53000FFF7A7
:10A13000FFFEF2E701370135EDB21F2D01D80024F3
:10A14000EDE703B0F0BD0000F0B5DE4657464E46E1
:10A15000C0B586B083460491059202930E9E0023FB
:10A160009A4637E05346D800584480B204990B0011
:10A170000F339BB2C21D92B2FFF71AFF002575572D
:10A18000203D2D01304BED180027B1463E00059FC4
:10A1900012E00298FFF7CCFE0134E4B2072C08D895
:10A1A0000023EB562341DB07F3D53800FFF7C0FE51
:10A1B000F2E701350136F6B20F2E01D80024EDE7A3
:10A1C0004E4653460133DBB29A46013653461D2BA9
:10A1D00034D862B60023F356002B2FD072B6002479
:10A1E00034572300203BDBB25E2BBBD97F2CECD154
:10A1F000002301E00133DBB2022B1AD80127F75705
:10A20000039312491A01D51868004556091801220E
:10A210008A56AC42EED19742ECD10B000233524643
:10A22000D000584480B20093029B059A0499FFF72E
:10A2300062FF53460133DBB29A46C6E706B01CBC48
:10A2400091469A46A346F0BD54AF0000ECAE000024
:10A25000F0B5CE4600B582B001900E0017009946C9
:10A2600008AB1D884B46FFF7A3FE08E02800FFF768
:10A270005FFE0134A4B2BC42F8D90136B6B24E45F5
:10A2800001D8019CF7E702B004BC9146F0BD000084
:10A29000F0B5D6464F464646C0B586B00700039097
:10A2A000160004921D0005930EAB1B789946384B9F
:10A2B00000932B000291FFF7CBFF0024009402993A
:10A2C0000B0032003800FFF7BFFE00942B003A006D
:10A2D00002993800FFF7B8FE00942B003200029973
:10A2E0003000FFF7B1FE00942B0032002900380047
:10A2F000FFF7AAFE0125A8464346012B05D906B063
:10A300001CBC90469946A246F0BD4B46002B38D166
:10A31000CA4643469CB2039BE618B6B2029BE518B8
:10A32000ADB2049B1F1BBFB2534600932B003A00F3
:10A3300029003000FFF788FE059B1C1BA4B2534682
:10A3400000932300320029003000FFF77DFE4B46CA
:10A35000002B19D10F4B9A465346009323003A0025
:10A3600029003800FFF770FE5346009323003A009F
:10A3700021003000FFF768FE43460133DBB2984608
:10A38000BAE7044B9A46C4E700239A46E4E7C0467E
:10A3900030840000FFFF0000002201E0C0460132CF
:10A3A000024B43439342F9D87047C04670170000F0
:10A3B00010B582B000230093254A01210020FFF749
:10A3C0005FFA244C002201212000FFF7F3F900225C
:10A3D00001212148FFF7EEF9C02001220121800070
:10A3E000FFF7E8F900210020FFF7DAFD0021200047
:10A3F000FFF7BEF96420FFF7CFFF01212000FFF730
:10A40000B7F96420FFF7C8FF3620FFF7AFFD002043
:10A41000FFF774FDB620FFF7A9FD0A20FFF76EFDD8
:10A42000A220FFF76BFD3A20FFF7A0FD0520FFF704
:10A4300065FD1120FFF79AFDC8208000FFF7ACFFF3
:10A440000648FFF7DCFD2920FFF790FD02B010BDA4
:10A45000204E00000203000001030000FFFF000087
:10A46000F0B583B072B66B46DC1C21000020FFF70C
:10A47000E9FC2378002B01D0712802D062B603B02A
:10A48000F0BD5738FEF7C2FEFEF768FF061CFEF768
:10A49000A3FD04000D000022124BFDF741FFFEF763
:10A4A000F9FC0A21FCF770FD8B00C9184B00DFB2E4
:10A4B00000220D4B20002900FDF732FFFEF7EAFCD9
:10A4C0000A21FCF761FDCBB2FB18DCB2301CFDF7B2
:10A4D000B3FA01A908704C7000238B700020FFF7BD
:10A4E0009BFCCBE7000024400000594010B572B639
:10A4F0000120FEF761FF62B610BD10B50C001368B5
:10A50000012B05D0022B07D023680133236010BD37
:10A51000536840B29847F7E793681870936801331F
:10A520009360F1E7F0B583B016001D00471C0023CF
:10A530000370002A1FD00C68002C01D000260BE00D
:10A54000303343700126300003B0F0BD3023591A78
:10A55000397001360137019C002CF4D0290020000D
:10A56000FCF72CFC019029002000FCF70DFD0029D0
:10A57000ECDB3031ECE70C68002C08D13023437061
:10A580000126E0E737343C70013601370400002C27
:10A59000D9D029002000FCF787FB03006B43E41AA5
:10A5A000092CEFD83034EEE7F8B504000D001700A1
:10A5B0001E0005E0320039003020FFF79EFF013415
:10A5C000AC42F7DBF8BDF8B504000D0017001E0023
:10A5D00005E0320039002020FFF78FFF0134AC4244
:10A5E000F7DBF8BD10B5C1B20220FFF7E7FB10BDE5
:10A5F000F0B5D6464F4680B59BB00400894615009D
:10A600001422002115A800F082FB4C22002102A890
:10A6100000F07DFB2668676830003900FCF752FDCA
:10A620008246FEF7A7FC02000B0030003900FEF75F
:10A63000E9F806000F00002D0ED14B4A4B4BFDF7F9
:10A640006FFEFCF75DFD04000191002515E000227E
:10A65000474BFDF765FE25006C1E002DF7D1FCF77A
:10A660004FFD04000191F0E70022414B300039001A
:10A67000FDF756FE06000F00013500223D4B30006D
:10A680003900FCF79DFC0028EED16F1E5346002BCD
:10A6900021D130334A4613702F3B9A4653465D1CF6
:10A6A0002E234A4651465354019B234323D0002670
:10A6B00039E0751C0A215046FCF77CFBB60015AB4F
:10A6C000F1500A215046FCF7EFFA82462E0053461D
:10A6D000002BEED10CE00026F9E7013EB20015ABED
:10A6E000D35830334A465146535401239C46E244E2
:10A6F000002EF2D1D2E73033535501352AE00A2239
:10A70000002320000199FCF7BDFC731C9A46B6009B
:10A7100002ABF2500A22002320000199FCF7B2FCA0
:10A72000040001915646019B2343E8D105E0B300A4
:10A73000002202A95A50013F0136002FF7D107E04D
:10A74000013EB30002AA9B5830334A4653550135A7
:10A75000002EF5D14B465B1900221A7028001BB061
:10A760000CBC91469A46F0BD00A0D885573476437C
:10A77000000024400000F03FF0B5DE4657464E464C
:10A780004546E0B595B000900D0090460BAC2122F7
:10A790000021200000F0BBFA3023237000230A932D
:10A7A0000133019300239A460BE0009C22000AA982
:10A7B0000D20FFF7A2FE22000AA90A20FFF79DFE46
:10A7C000013500202856002800D17CE2252822D01F
:10A7D0000A28EAD0009A0AA9FFF78FFEF0E70123C2
:10A7E0001E43050000291BD1681C0123EB56203BAA
:10A7F000DAB2102A12D89300BE4AD3589F460223D9
:10A800001E43EEE704231E43EBE708231E43E8E75D
:10A8100010231E43E5E700260021E3E70121E1E7DD
:10A82000002400231F0000E00F00002F0ED1681C41
:10A830000123EB561A00303AD2B2092AF4D8A2000A
:10A8400012195400303BE4180500EEE7BB466F1CBC
:10A850000123EB562E2B19D00023994601936B1C34
:10A860000122AA56682A04D06C2A27D04C2A2AD062
:10A870002B005D1C012018560300583BDAB2202A39
:10A8800000D918E293009C4AD3589F460023002029
:10A8900000E0584600280ED17D1C0122BA56110056
:10A8A0003039C9B20929F4D89900C9184B00303A97
:10A8B0009B182F00EEE799463D00D0E70122514654
:10A8C00011438A46D5E70222514611438A46D0E712
:10A8D00043460433029343461B6809930A2301222B
:10A8E00009A90BA8FFF71EFE81460BAF4F44099B39
:10A8F000002B07DBB30719D501239C46E1442A331B
:10A90000984604E001239C46E1442C3398463307E3
:10A910001CD54346002B13D1009B0AAA21004846B0
:10A92000FFF742FEA146029B984662E104233340B2
:10A930009846ECD001239C46E1441F339846E6E755
:10A94000009A0AA94046FFF7D8FDE5E7F30705D5C9
:10A950004346002B16D1029B98464AE1009B0AAA67
:10A9600021004846FFF72FFE4346002B02D1029BF1
:10A9700098463EE1009A0AA94046FFF7BEFD029BB9
:10A98000984636E1009A0AA94046FFF7B6FD029BB9
:10A9900098462EE10C2343449B46434659689F68E2
:10A9A00002910A003B0006920793002200230298BE
:10A9B0003900FCF705FB002806D1B30724D404278F
:10A9C000374008D0202706E0029A802109067B182C
:10A9D000069207932D27019B002B17D15346002B7E
:10A9E0001BD108220BA906A8FFF702FE029033072D
:10A9F00020D5002F18D1009B0AAA21000298FFF74A
:10AA0000D3FD02940BAF32E02B27E4E74A460BA9B3
:10AA100006A8FFF7EDFD0290E9E74A460BA906A854
:10AA2000FFF7E6FD0290E2E7009A0AA93800FFF777
:10AA300064FDE0E7F30707D5002FE3D0009A0AA9E9
:10AA40003800FFF75AFDDDE7009B0AAA21000298B3
:10AA5000FFF7B9FD002FD5D0009A0AA93800FFF7FB
:10AA60004CFDCFE70137009A0AA9FFF746FD002009
:10AA700038560028F6D1F30701D4D846A0E6009B4B
:10AA80000AAA21000298FFF79EFDD84698E64346A1
:10AA90000433029343461B6805931023002205A943
:10AAA0000BA8FFF73FFD81460BAF4F44082333400F
:10AAB000984623D01023334098460FD1009B0AAA12
:10AAC00021004846FFF770FDA146F30600D49EE042
:10AAD0004346002B30D0029B98468AE0009A0AA990
:10AAE0003020FFF70AFD009A0AA97820FFF705FD3C
:10AAF000D846E3E754B5000098B50000F307E4D466
:10AB000010233340984602D002239C46E144009B28
:10AB10000AAA21004846FFF756FD4346002BD4D031
:10AB2000009A0AA93020FFF7E8FC009A0AA97820C9
:10AB3000FFF7E3FCD846C8E7009A0AA93020FFF7E0
:10AB4000DCFC009A0AA97820FFF7D7FC02239C4678
:10AB5000E144029B98464CE043461F1D1B68059349
:10AB60000823002205A90BA8FFF7DCFC8146B846A4
:10AB70000BAF4F4433072FD4F3073AD4009B0AAAF4
:10AB800021004846FFF71FFD33E043461F1D1B68A9
:10AB900005930223002205A90BA8FFF7C3FC8146F9
:10ABA000B846E5E743461F1D1B68059310230022A6
:10ABB00005A90BA8FFF7B6FC8146B846D8E743467F
:10ABC0001F1D1B6805930A23002205A90BA8FFF788
:10ABD000A9FC8146B846CBE7009B0AAA210048465B
:10ABE000FFF7E2FCA14604E0013F009A0AA9FFF743
:10ABF00084FC002038560028F6D1F30700D4DFE5A6
:10AC0000009B0AAA21004846FFF7DDFCD8E5029B1D
:10AC10009846EEE743461C1D00201856009A0AA9E4
:10AC2000FFF76BFCA046CBE5434604330293434653
:10AC30001F68002F44D03800FEF7CEFA039001239E
:10AC40001E4013D04B46002B1BD000203856002846
:10AC50001BD04B46002BF8DD01235B429C46E144B0
:10AC60000137009A0AA9FFF748FCEEE7009B0AAA01
:10AC70002100FFF7A8FCE5E70137009A0AA9FFF7D2
:10AC80003CFC002038560028F6D1002E02D1029B51
:10AC9000984695E5009B0AAA21000398FFF793FCCC
:10ACA000029B98468CE543461B680A9A1A60042367
:10ACB0009C46E04484E5009A0AA9FFF71EFC7FE564
:10ACC000029B98467CE50A9815B03CBC9046994694
:10ACD000A246AB46F0BDC0460FB400B585B0012317
:10ACE0000193054B029306AA02CA01A8FFF744FD8F
:10ACF00005B008BC04B01847E5A50000002310B556
:10AD00009A4200D110BDCC5CC4540133F8E7030073
:10AD10001218934200D1704719700133F9E700000F
:10AD200044750000EE740000EE7400001C76000014
:10AD3000EA740000EA740000127600001C7600003D
:10AD4000EA74000012760000EA7400001C7600002D
:10AD50002076000020760000207600002876000093
:10AD6000B07D0000227C0000667C0000CA7B0000F1
:10AD7000667C0000567D0000667C0000CA7B0000F7
:10AD8000227C0000227C0000567D0000CA7B00006F
:10AD9000C27B0000C27B0000C27B0000647D00001B
:10ADA000D8840000DA830000DA830000F88600000F
:10ADB000D4830000D4830000E0860000F886000001
:10ADC000D4830000E0860000D4830000F8860000F1
:10ADD000EE860000EE860000EE860000FC86000095
:10ADE000CA920000CA920000CE920000CE920000EB
:10ADF000D6920000D6920000BDF8C8EB557365727C
:10AE0000B5C46D61696E2E2E2E0A00004C4344B30A
:10AE1000F5CABCBBAF2E2E2E00000000B3C9B9A6E8
:10AE20000A000000BDF0BAF9C2ABCCE1CABEA3BAB9
:10AE30004C4344C6C1C4BBB0E6C3E62E2E2E000070
:10AE400041484C2D4D43552D4B4C333600000000EE
:10AE500048617264776172652D54657374000000F7
:10AE60004D43555F546D703A0000000020202020B3
:10AE70002000000000F00F4040F00F4080F00F4035
:10AE8000C0F00F4000F10F400090044000A00440CB
:10AE900000B0044000C0044000D0044030313233E0
:10AEA0003435363738394142434445463230323002
:10AEB00030373136000000002020A1BE5573657286
:10AEC000CCE1CABEA1BFA3BABDABBDF8C8EB5573F8
:10AED0006572B5C46D61696E2829D6B4D0D02E2EA6
:10AEE0002E0D0A0000B0064000C00640BDF08000F4
:10AEF0008000400120021004080AF47783208000BB
:10AF0000F80F800088089004A012FE3F0000BAF9F4
:10AF100020022022FF7F2002103E9022FE23103EBE
:10AF20005022FC22443E442244227C2244298010A8
:10AF3000C2AB10041024FF7F10048010FC3F0410EB
:10AF40000410FC1F041004000400040002000200AE
:10AF500001000000000000000000000000000000F0
:10AF6000000000000000183C3C3C1818180018189D
:10AF7000000000000066666624000000000000007B
:10AF80000000000000000036367F3636367F363649
:10AF90000000000018183E6343033E6061633E18E2
:10AFA0001800000000000000436330180C066361C5
:10AFB0000000000000001C36361C6E3B3333336E3D
:10AFC00000000000000C0C0C060000000000000057
:10AFD00000000000000030180C0C0C0C0C0C183099
:10AFE0000000000000000C18303030303030180CF9
:10AFF000000000000000000000663CFF3C6600000E
:10B0000000000000000000000018187E1818000062
:10B0100000000000000000000000000000181818E8
:10B020000C000000000000000000007F0000000095
:10B0300000000000000000000000000000001818E0
:10B040000000000000000000406030180C06030102
:10B050000000000000003E6363736B6B6763633E38
:10B06000000000000000181C1E1818181818187E80
:10B070000000000000003E636030180C0603637F90
:10B080000000000000003E6360603C606060633E62
:10B0900000000000000030383C36337F303030781C
:10B0A0000000000000007F0303033F706060633E08
:10B0B0000000000000001C0603033F636363633E5F
:10B0C0000000000000007F63606030180C0C0C0C66
:10B0D0000000000000003E6363633E636363633E01
:10B0E0000000000000003E6363637E606060301E0D
:10B0F00000000000000000001818000000181800F0
:10B100000000000000000000181800000018180CD3
:10B11000000000000000006030180C060C183060C1
:10B12000000000000000000000007F00007F000021
:10B1300000000000000000060C18306030180C06FB
:10B140000000000000003E63633018181800181853
:10B15000000000000000003E63637B7B7B3B033EFE
:10B16000000000000000081C3663637F63636363B4
:10B170000000000000003F6666663E666666663F49
:10B180000000000000003C66430303030343663CE9
:10B190000000000000001F36666666666666361FA1
:10B1A0000000000000007F6646161E160646667FF9
:10B1B0000000000000007F6646161E160606060FF9
:10B1C0000000000000003C664303037B6363665C91
:10B1D000000000000000636363637F636363636375
:10B1E0000000000000003C18181818181818183C27
:10B1F0000000000000007830303030303333331E30
:10B20000000000000000676636361E1E3666666760
:10B210000000000000000F06060606060646667FD0
:10B2200000000000000063777F7F6B6363636363EC
:10B2300000000000000063676F7F7B7363636363DC
:10B240000000000000001C36636363636363361C08
:10B250000000000000003F6666663E060606060F18
:10B260000000000000003E6363636363636B7B3E2A
:10B270003070000000003F6666663E3666666667B0
:10B280000000000000003E6363061C306063633E04
:10B290000000000000007E7E5A1818181818183C8C
:10B2A0000000000000006363636363636363633EE5
:10B2B00000000000000063636363636363361C087F
:10B2C00000000000000063636363636B6B7F3636CE
:10B2D000000000000000636336361C1C36366363D2
:10B2E000000000000000666666663C181818183CEE
:10B2F0000000000000007F636130180C0643637F8C
:10B300000000000000003C0C0C0C0C0C0C0C0C3C65
:10B31000000000000000000103070E1C38706040B0
:10B320000000000000003C30303030303030303C25
:10B3300000000000081C3663000000000000000050
:10B3400000000000000000000000000000000000FD
:10B3500000FF00000C0C18000000000000000000BE
:10B360000000000000000000001E303E3333336E4A
:10B370000000000000000706061E36666666663B93
:10B380000000000000000000003E63030303633E72
:10B390000000000000003830303C36333333336E69
:10B3A0000000000000000000003E637F0303633ED6
:10B3B0000000000000001C3626060F060606060FD9
:10B3C0000000000000000000006E33333333333ED2
:10B3D00030331E000000070606366E666666666736
:10B3E0000000000000001818001C18181818183C5D
:10B3F00000000000000060600070606060606060DD
:10B4000066663C00000007060666361E1E36666746
:10B410000000000000001C18181818181818183C14
:10B42000000000000000000000377F6B6B6B6B6B4F
:10B430000000000000000000003B6666666666666D
:10B440000000000000000000003E63636363633E91
:10B450000000000000000000003B66666666663E75
:10B4600006060F0000000000006E33333333333E16
:10B470003030780000000000003B6E460606060FE4
:10B480000000000000000000003E63061C30633E28
:10B49000000000000000080C0C3F0C0C0C0C6C3879
:10B4A0000000000000000000003333333333336EFC
:10B4B00000000000000000000066666666663C183A
:10B4C0000000000000000000006363636B6B7F36C8
:10B4D00000000000000000000063361C1C1C3663E6
:10B4E0000000000000000000006363636363637E8C
:10B4F00060301F0000000000007F33180C06637FDF
:10B50000000000000000701818180E1818181870A5
:10B510000000000000001818181800181818181853
:10B520000000000000000E18181870181818180EE7
:10B530000000000000006E3B000000000000000062
:10B540000000000000000000081C366363637F00F9
:10B550000000000004A800001CA800001CA80000B7
:10B5600010A800001CA800001CA800001CA80000D7
:10B570001CA800001CA800001CA800001CA80000BB
:10B58000FEA700001CA80000DEA700001CA8000009
:10B590001CA800000AA800008EAA0000B6AC00009B
:10B5A000B6AC0000B6AC0000B6AC0000B6AC000013
:10B5B000B6AC0000B6AC0000B6AC0000B6AC000003
:10B5C0008AAB000014AC0000D0A80000B6AC0000AC
:10B5D00094A90000B6AC0000B6AC0000D0A80000F2
:10B5E000B6AC0000B6AC0000B6AC0000B6AC0000D3
:10B5F000A6AC000058AB0000A4AB0000B6AC000045
:10B60000B6AC000028AC0000B6AC0000BEAB000039
:10B61000B6AC0000B6AC00008EAA0000F8B5C0467B
:10B62000F8BC08BC9E467047F8B5C046F8BC08BCDC
:04B630009E4670477B
:08B6340008BBFF7F01000000CC
:04B63C00396C000065
:04B64000116C000089
:10B64400008003400090034000A00340006CDC0233
:04B654000C0D0E00CB
:0400000300006C5934
:00000001FF
